:020000040800F2
:100000000000052465520008FD490008054A000863
:100010000D4A0008154A00081D4A000800000000AB
:10002000000000000000000000000000254A000859
:10003000334A000800000000414A00084F4A000807
:10004000B5520008B5520008B5520008B552000874
:10005000B5520008B5520008B5520008B552000864
:10006000B5520008B5520008B55200085D4A0008B4
:10007000B5520008B5520008B5520008B552000844
:10008000B5520008B5520008B5520008B552000834
:10009000B5520008B5520008B5520008B552000824
:1000A000B5520008B5520008B5520008B552000814
:1000B000B5520008B5520008B5520008B552000804
:1000C000B5520008B5520008B5520008B5520008F4
:1000D000B5520008B5520008B5520008DD4A0008C4
:1000E000B5520008B552000800000000B5520008E3
:1000F000B5520008B5520008B5520008B5520008C4
:10010000B5520008B5520008B5520008B5520008B3
:10011000B5520008B5520008B5520008B5520008A3
:10012000A94A0008B5520008B5520008B5520008A7
:10013000B5520008B5520008B5520008B552000883
:1001400000000000000000000000000000000000AF
:10015000B5520008B5520008B5520008B552000863
:10016000B5520008B5520008B5520008B552000853
:10017000B5520008B5520008B5520008B552000843
:10018000B5520008B5520008B5520008B552000833
:10019000B5520008B5520008B5520008B552000823
:1001A000B5520008B5520008B55200080000000022
:1001B000B5520008B5520008B5520008B552000803
:1001C000B5520008B5520008000000000000000011
:1001D0000000000000000000B55200080000000010
:1001E000000000000000000000000000000000000F
:1001F0000000000000000000B5520008B5520008E1
:10020000B5520008B552000800000000B5520008C1
:10021000B5520008B5520008B5520008B5520008A2
:10022000B552000800000000B552000800000000B0
:10023000B5520008B552000800000000B552000891
:10024000B5520008B5520008B5520008B552000872
:10025000B5520008B5520008B5520008B552000862
:10026000B5520008B5520008B5520008B552000852
:10027000B5520008B5520008B55200080000000051
:10028000B5520008B5520008B5520008B552000832
:1002900000000000B5520008B5520008B552000831
:1002A000B5520008B5520008B5520008B552000812
:1002B000B5520008B5520008B5520008B552000802
:0C02C000B5520008B5520008B552000805
:1002CC0010B5054C237833B9044B13B10448AFF384
:1002DC0000800123237010BDD00200240000000018
:1002EC001C53000808B5034B1BB103490348AFF37B
:1002FC00008008BD00000000D40200241C5300083C
:10030C0080B584B000AF78600023FB73786802F08E
:10031C00E1FB03461A46FB7B1344FB73FB7B18463D
:10032C001037BD4680BD80B584B000AF78600B46F9
:10033C00FB701346BB700023FB73FB785B00BB7335
:10034C0097F903305B005BB243F001035BB27B7344
:10035C00BB783B7307F10C02B97B0123786802F080
:10036C004BFC03461A46FB7B1344FB7307F10C0250
:10037C00797B0123786802F087FC03461A46FB7BE5
:10038C001344FB733B7BBA789A4202D0FB7B01335C
:10039C00FB73FB7B18461037BD4680BD80B584B01F
:1003AC0000AF78600B46FB700023FB7397F90330AA
:1003BC005B005BB243F001035BB2BB7307F10D0250
:1003CC00B97B0123786802F05FFC03461A46FB7B7D
:1003DC001344FB73FB7B18461037BD4680BD0000F1
:1003EC0080B400AF044BDB681B0A03F0070318460C
:1003FC00BD465DF8047B704700ED00E080B483B02F
:10040C0000AF0346FB80B7F90630002B0BDBFB88F3
:10041C0003F01F020749B7F906305B09012000FA07
:10042C0002F241F8232000BF0C37BD465DF8047B77
:10043C00704700BF00E100E080B483B000AF03461A
:10044C003960FB80B7F90630002B0ADB3B68DAB267
:10045C000C49B7F906301201D2B20B4483F80023D1
:10046C000AE03B68DAB20849FB8803F00F03043B4F
:10047C001201D2B20B441A7600BF0C37BD465DF8A0
:10048C00047B704700E100E000ED00E080B489B02F
:10049C0000AFF860B9607A60FB6803F00703FB619A
:1004AC00FB69C3F10703042B28BF0423BB61FB6961
:1004BC000433062B02D9FB69033B00E000237B616C
:1004CC004FF0FF32BB6902FA03F3DA43BB681A4000
:1004DC007B699A404FF0FF317B6901FA03F3D943F2
:1004EC007B680B40134318462437BD465DF8047BEC
:1004FC007047000080B485B000AF78600A4BD3F829
:10050C00D82009497B681343C1F8D830064BD3F87F
:10051C00D8207B681340FB60FB6800BF1437BD46D6
:10052C005DF8047B704700BF0044025880B485B06E
:10053C0000AF78600A4BD3F8E02009497B6813437D
:10054C00C1F8E030064BD3F8E0207B681340FB6029
:10055C00FB6800BF1437BD465DF8047B704700BFD5
:10056C000044025880B485B000AF78600A4BD3F8D1
:10057C00E82009497B681343C1F8E830064BD3F8EF
:10058C00E8207B681340FB60FB6800BF1437BD4656
:10059C005DF8047B704700BF0044025880B485B0FE
:1005AC0000AF786039607B68FB600C4A3B68134491
:1005BC001B781A46FB6813441B6808493A680A44BE
:1005CC0012781146FA680A4443F00103136000BF25
:1005DC001437BD465DF8047B704700BF34530008E8
:1005EC0080B485B000AF786039607B68FB600C4AE2
:1005FC003B6813441B781A46FB6813441B68084974
:10060C003A680A4412781146FA680A4423F0010346
:10061C00136000BF1437BD465DF8047B704700BF04
:10062C003453000880B485B000AF786039607B68C3
:10063C00FB600A4A3B6813441B781A46FB68134458
:10064C001B6803F00103012B01D1012300E00023FF
:10065C0018461437BD465DF8047B704734530008C8
:10066C0080B487B000AFF860B9607A60FB687B61DA
:10067C000D4ABB6813441B781A467B6913441B68EC
:10068C0023F0C0020849BB680B441B7819467B69F0
:10069C000B4419467B6813430B6000BF1C37BD46E7
:1006AC005DF8047B704700BF3453000880B487B0FA
:1006BC0000AFF860B9607A60FB687B610D4ABB687B
:1006CC0013441B781A467B6913441B6823F49072FD
:1006DC000849BB680B441B7819467B690B441946C7
:1006EC007B6813430B6000BF1C37BD465DF8047B71
:1006FC00704700BF3453000880B487B000AFF86077
:10070C00B9607A60FB687B610D4ABB6813441B7847
:10071C001A467B6913441B6823F400720849BB68B2
:10072C000B441B7819467B690B4419467B681343B1
:10073C000B6000BF1C37BD465DF8047B704700BFE3
:10074C003453000880B487B000AFF860B9607A60A9
:10075C00FB687B610D4ABB6813441B781A467B69A6
:10076C0013441B6823F480620849BB680B441B7854
:10077C0019467B690B4419467B6813430B6000BF19
:10078C001C37BD465DF8047B704700BF345300082E
:10079C0080B487B000AFF860B9607A60FB687B61A9
:1007AC000D4ABB6813441B781A467B6913441B68BB
:1007BC0023F4C0520849BB680B441B7819467B696B
:1007CC000B4419467B6813430B6000BF1C37BD46B6
:1007DC005DF8047B704700BF3453000880B487B0C9
:1007EC0000AFF860B9607A60FB687B610D4ABB684A
:1007FC0013441B781A467B6913441B6823F4C042CC
:10080C000849BB680B441B7819467B690B44194695
:10081C007B6813430B6000BF1C37BD465DF8047B3F
:10082C00704700BF3453000880B487B000AFF86045
:10083C00B9607A60FB687B610D4ABB6813441B7816
:10084C001A467B6913441B6823F440320849BB6881
:10085C000B441B7819467B690B4419467B68134380
:10086C000B6000BF1C37BD465DF8047B704700BFB2
:10087C003453000880B487B000AFF860B9607A6078
:10088C00FB687B610D4ABB6813441B781A467B6975
:10089C0013445A680A4B13400849BA680A44127840
:1008AC0011467A690A4411467A6813434B6000BFBB
:1008BC001C37BD465DF8047B704700BF34530008FD
:1008CC000000FFFF80B485B000AF786039607B68B2
:1008DC00FB60074A3B6813441B781A46FB681344B9
:1008EC005B689BB218461437BD465DF8047B7047B5
:1008FC003453000880B485B000AFF860B9607A60FA
:10090C00BA68124B13449B00FA6811498A4201D110
:10091C00002200E0202213441B6823F0FF02B96878
:10092C000A4B0B449B00F9680948814201D1002114
:10093C0000E020210B4419467B6813430B6000BF79
:10094C001437BD465DF8047B704700BF0082001071
:10095C000000024080B485B000AF786039607B68DD
:10096C00FB600C4A3B6813441B781A46FB68134423
:10097C005B6908493A680A4412781146FA680A44D5
:10098C0023F00403536100BF1437BD465DF8047BAC
:10099C00704700BF3453000880B487B000AFF860D4
:1009AC00B9607A60FB687B61074ABB6813441B78AB
:1009BC001A467B6913441A467B68D36000BF1C3708
:1009CC00BD465DF8047B70473453000880B487B093
:1009DC0000AFF860B9607A60FB687B61074ABB685E
:1009EC0013441B781A467B6913441A467B68936040
:1009FC0000BF1C37BD465DF8047B704734530008BC
:100A0C0080B483B000AF78607B6810229A6000BF1E
:100A1C000C37BD465DF8047B704780B483B000AFE3
:100A2C0078607B6820229A6000BF0C37BD465DF869
:100A3C00047B704780B483B000AF78607B68082279
:100A4C009A6000BF0C37BD465DF8047B7047000010
:100A5C0080B485B000AF786039607B68FB600C4A6D
:100A6C003B6813441B781A46FB6813441B680849FF
:100A7C003A680A4412781146FA680A4443F00803AB
:100A8C00136000BF1437BD465DF8047B704700BF90
:100A9C003453000880B485B000AF786039607B684F
:100AAC00FB600C4A3B6813441B781A46FB681344E2
:100ABC001B6808493A680A4412781146FA680A44D5
:100ACC0043F00403136000BF1437BD465DF8047B8C
:100ADC00704700BF3453000880B485B000AF786015
:100AEC0039607B68FB600C4A3B6813441B781A46E0
:100AFC00FB6813441B6808493A680A44127811468B
:100B0C00FA680A4443F01003136000BF1437BD4663
:100B1C005DF8047B704700BF3453000880B485B087
:100B2C0000AF78607B68DAB2104B1344FB60FB6853
:100B3C001A687B68190E7B681B0A03F01F0301FA05
:100B4C0003F3DB431A407B681B0CD9B27B681B0A8E
:100B5C0003F01F0301FA03F31A43FB681A6000BF8A
:100B6C001437BD465DF8047B704700BF4C440258F7
:100B7C0080B582B000AF78607868FFF7CFFF00BF18
:100B8C000837BD4680BD80B483B000AF78607B6809
:100B9C001B6843F001027B681A6000BF0C37BD462E
:100BAC005DF8047B704780B483B000AF78607B68DD
:100BBC001B6823F001027B681A6000BF0C37BD462E
:100BCC005DF8047B704780B483B000AF78607B68BD
:100BDC001B6823F000527B681A6000BF0C37BD46BF
:100BEC005DF8047B704780B489B000AF78603960E1
:100BFC007B68FB60FB6853E8003FBB60BB6823F07D
:100C0C000C033A681343FB617B68FA69BA617B6138
:100C1C007969BA6941E800233B613B69002BE7D154
:100C2C0000BF00BF2437BD465DF8047B704780B41D
:100C3C0083B000AF786039607B681B6823F4C062B6
:100C4C003B681A437B681A6000BF0C37BD465DF8E1
:100C5C00047B704780B483B000AF786039607B68E8
:100C6C001B6823F010223B681A437B681A6000BF94
:100C7C000C37BD465DF8047B704780B483B000AF81
:100C8C00786039607B681B6823F400423B681A4328
:100C9C007B681A6000BF0C37BD465DF8047B70475B
:100CAC0080B483B000AF786039607B68DB6A23F076
:100CBC000F033A6892B21A437B68DA6200BF0C37B2
:100CCC00BD465DF8047B704780B483B000AF78609C
:100CDC0039607B685B6823F440523B681A437B683D
:100CEC005A6000BF0C37BD465DF8047B704780B47A
:100CFC0083B000AF786039607B689B6823F44072E6
:100D0C003B681A437B689A6000BF0C37BD465DF8A0
:100D1C00047B704780B487B000AFF860B9607A602C
:100D2C003B607B680B2B3CD83B6A002B39D03B6873
:100D3C00B3F5004F22D17B68DBB21A461C4B53F83B
:100D4C002230BA68B2FBF3F35A003B6A5B081A44D0
:100D5C003B6AB2FBF3F39BB27B617A694FF6F0739B
:100D6C0013403B617B695B089BB203F007033A6954
:100D7C0013433B61FB683A69DA6012E07B68DBB2D3
:100D8C001A460B4B53F82230BA68B2FBF3F23B6AAB
:100D9C005B081A443B6AB2FBF3F39BB21A46FB683E
:100DAC00DA6000BF1C37BD465DF8047B704700BF9E
:100DBC003C53000880B483B000AF78607B685B68FC
:100DCC0023F490427B685A607B689B6823F02A026C
:100DDC007B689A6000BF0C37BD465DF8047B70479A
:100DEC0080B483B000AF78607B68DB6903F40013D8
:100DFC00B3F5001F01D1012300E0002318460C3786
:100E0C00BD465DF8047B704780B483B000AF78605A
:100E1C007B68DB6903F48003B3F5800F01D10123F8
:100E2C0000E0002318460C37BD465DF8047B704784
:100E3C0080B489B000AF78607B68FB60FB6853E8D6
:100E4C00003FBB60BB6843F01003FB617B68FA6931
:100E5C00BA617B617969BA6941E800233B613B69FE
:100E6C00002BE9D100BF00BF2437BD465DF8047BE1
:100E7C00704780B489B000AF78607B680833FB6042
:100E8C00FB6853E8003FBB60BB6843F04003FB6169
:100E9C007B680833FA69BA617B617969BA6941E8A0
:100EAC0000233B613B69002BE7D100BF00BF243717
:100EBC00BD465DF8047B704780B489B000AF7860A4
:100ECC007B680833FB60FB6853E8003FBB60BB6882
:100EDC0043F08003FB617B680833FA69BA617B617C
:100EEC007969BA6941E800233B613B69002BE7D182
:100EFC0000BF00BF2437BD465DF8047B704780B44B
:100F0C0085B000AF786039603B68002B03D17B68FB
:100F1C002833FB6002E07B682433FB60FB681846D7
:100F2C001437BD465DF8047B7047000080B582B075
:100F3C0000AF124BDB68184601F041FC00237B60CC
:100F4C0003E000BF7B6801337B607B68B3F5007FF7
:100F5C00F7D30A4BDB68184601F042FC00233B60D8
:100F6C0003E000BF3B6801333B603B68044A93429B
:100F7C00F7D300BF00BF0837BD4680BDBC020024BC
:100F8C0000A0860180B588B002AFA74BDB6818467D
:100F9C0001F0F1FBFFF7CAFF0820FFF7C7FA3B4649
:100FAC0000221A605A609A60DA601A615A61022350
:100FBC007B600323BB600023FB6000233B610723A2
:100FCC007B614FF480733B603B461946974803F0B6
:100FDC00FDFE4FF400733B603B461946934803F00B
:100FEC00F5FE9348FFF7C4FD4FF48020FFF7BAFAE3
:100FFC009048FFF7D8FD00218E48FFF751FE4FF4C3
:10100C00E1330093002300228B498A48FFF782FECC
:10101C0000218848FFF71EFE00218648FFF754FE8A
:10102C0000218448FFF703FE0C218248FFF7DBFD0B
:10103C0000218048FFF75BFE00217E48FFF71DFE74
:10104C007C48FFF7C0FD7B48FFF7B4FE0120FFF79B
:10105C0051FA00217948FFF7C3FA00BF0021774805
:10106C00FFF7E0FA0346002BF8D12D22002173483C
:10107C00FFF740FC002200217048FFF7F1FA4FF413
:10108C00803200216D48FFF7CFFB4FF480720021B6
:10109C006A48FFF70BFB002200216848FFF778FB3A
:1010AC00002200216548FFF799FB002200216348CC
:1010BC00FFF722FB4FF4806200216048FFF742FBF0
:1010CC0000215E48FFF746FC01215A48FFF717FF45
:1010DC0003461A4600215948FFF778FC584B1A462C
:1010EC0000215648FFF758FC4FF48052002153481A
:1010FC00FFF7C0FBFFF774F90346002202211846E4
:10110C00FFF7C4F9034619460B20FFF795F90B209E
:10111C00FFF774F90220FFF7EDF900214948FFF7BA
:10112C005FFA00BF00214748FFF77CFA0346002B0B
:10113C00F8D12E2200214348FFF7DCFB402200218E
:10114C004048FFF78DFA002200213E48FFF76CFB68
:10115C00002200213B48FFF7A9FA00220021394860
:10116C00FFF716FB002200213648FFF737FB002261
:10117C0000213448FFF7C0FA4FF480620021314857
:10118C00FFF7E0FA00212F48FFF7E4FB0021294884
:10119C00FFF7B5FE03461A4600212A48FFF716FC56
:1011AC00FFF71EF90346002203211846FFF76EF9DC
:1011BC00034619463820FFF73FF93820FFF71EF990
:1011CC001C48FFF779FE1B48FFF753FE1948FFF741
:1011DC002FFEFFF705F90346002202211846FFF700
:1011EC0055F9034619462720FFF726F92720FFF764
:1011FC0005F91048FFF7C7FC00BF0E48FFF7F0FDDC
:10120C000346002BF9D000BF0A48FFF7FDFD03464B
:10121C00002BF9D00C4B00221A800C4B00221A70B8
:10122C0000BF1837BD4680BDBC020024000C02581C
:10123C0008000207004800400020A10700000240FF
:10124C000000003000040240283300242A3300241C
:10125C0080B500AF00210848FFF7FAFB00210648D3
:10126C00FFF73AFC00210448FFF714FC0021024868
:10127C00FFF794F900BF80BD0000024080B582B03A
:10128C0000AF00211C48FFF71DFB03469BB2C3F5C2
:10129C008053FB80194B1B88BB80FA88BB889A4211
:1012AC0025D0FA88BB889A420AD9BB88144A991867
:1012BC00FA88BB88D31A1A46124801F0C9FD12E00D
:1012CC00BB880F4A9918BB88C3F580531A460D4842
:1012DC0001F0BEFDFB88002B05D0FB881A4608499F
:1012EC00084801F0B5FD054AFB88138000E000BFFB
:1012FC000837BD4680BD00BF0000024028330024E3
:10130C00000000300023002490B589B004AF0446DF
:10131C00084611461A462346FB710346BB710B4621
:10132C007B7113463B71294B1B78DBB2002B01D030
:10133C00002346E07879BA79F979BB8C02933B6A41
:10134C0001933B7900930346214801F0CCFE034600
:10135C00FB81FB8942F21202934201D9002330E057
:10136C001A4B01221A7000211A48FFF739F900BFF5
:10137C0000211848FFF756F90346002BF8D1144BFF
:10138C001A4600211348FFF707FBFB891A46002178
:10139C001048FFF76FFA0F48FFF73FFB0D48FFF7B8
:1013AC002FFB0C48FFF746FB00210A48FFF794FB84
:1013BC0000210848FFF76EFB00210648FFF7EEF806
:1013CC00012318461437BD4690BD00BF2A330024B4
:1013DC00EC0200240004024080B400AF094B1B78DF
:1013EC00DBB2002B14BF01230023DBB283F001031B
:1013FC00DBB203F00103DBB21846BD465DF8047B9B
:10140C00704700BF2A33002480B400AF034B002286
:10141C001A7000BFBD465DF8047B70472A33002468
:10142C0080B400AF024B1846BD465DF8047B704794
:10143C000023002480B584B000AFF8607B600B46BD
:10144C00FB721346BB72FB681A78124B5A70FB681E
:10145C005A78104B9A700F4AFB7AD3700D4ABB7AAC
:10146C0013717B68002B08D03B8B002B05D03B8B7A
:10147C001A467968084803F03DFF064B03F5805384
:10148C001A463B8BD380034B01221A7000BF1037D6
:10149C00BD4680BD2C3300243133002480B586B08A
:1014AC0002AF78600B46FB701346BB707B681B79F0
:1014BC003B737B685B797B7307F10C03BA78F97823
:1014CC00022000907868FFF7B5FF00BF1037BD46CB
:1014DC0080BD000080B588B002AFF860B9601346DB
:1014EC00FB71FB685B88002B05D00522F021F868A6
:1014FC00FFF7D4FF18E0FB7919460D4801F054F8BA
:10150C000346FB75FB7D002B01D1002300E0FF237C
:10151C00BB75FB681979FB685A7907F11603012032
:10152C000090F868FFF786FF1837BD4680BD00BFF6
:10153C00E001002480B586B002AF786039607B682A
:10154C005B88032B05D00522F0217868FFF7A6FFF6
:10155C0029E03B681B781BB21B021AB23B680133B3
:10156C001B781BB213431BB2FB813B6802331B7805
:10157C007B737A7BFB8919460C4800F06FFE03469F
:10158C003B733B7B002B01D1002300E0FF23FB725C
:10159C007B6819797B685A7907F10B03012000905D
:1015AC007868FFF747FF1037BD4680BDE001002487
:1015BC0080B586B002AF786039607B685B88022B9F
:1015CC0005D00522F0217868FFF768FF33E03B680F
:1015DC001B781BB21B021AB23B6801331B781BB27F
:1015EC0013431BB2FB8100233B7307F10C02FB89F5
:1015FC001946124800F0E6FE03467B737B7B002BFA
:10160C0014D13B681B783B723B6801331B787B72AF
:10161C003B7BBB727B6819797B685A7907F10803AD
:10162C00032000907868FFF705FF04E00122FF21FA
:10163C007868FFF733FF1037BD4680BDE00100240A
:10164C0080B586B002AF786039607B685B88B3F593
:10165C00967F05D00522F0217868FFF71FFF20E068
:10166C00114A3B68104619464FF496731A4603F01C
:10167C0041FE0D490D4800F0C7FE0346FB73FB7B92
:10168C00002B01D1002300E0FF23BB737B68197989
:10169C007B685A7907F10E03012000907868FFF7F8
:1016AC00C9FE1037BD4680BD34430024E001002440
:1016BC0080B586B002AF786039607B685B88002BA0
:1016CC0005D00522F0217868FFF7E8FE19E00E49F5
:1016DC000E4800F045FF0346FB73FB7B002B0BD140
:1016EC007B6819797B685A794FF496730093064B93
:1016FC007868FFF79FFE04E00122FF217868FFF76E
:10170C00CDFE1037BD4680BD34430024E0010024DB
:10171C0080B584B002AF78607B6819797B685A79A0
:10172C0003230093034B7868FFF784FE00BF083750
:10173C00BD4680BD7C53000880B584B002AF786094
:10174C007B6819797B685A7902230093034B78687C
:10175C00FFF770FE00BF0837BD4680BD8053000800
:10176C0080B584B002AF78600E4B1B78002B0AD08A
:10177C007B6819797B685A79042300930A4B786843
:10178C00FFF758FE09E07B6819797B685A790423C6
:10179C000093064B7868FFF74DFE00BF0837BD4637
:1017AC0080BD00BFBC44002484530008885300084B
:1017BC0080B584B002AF786039607B6819797B683A
:1017CC005A797B685B8800933B687868FFF732FE38
:1017DC0000BF0837BD4680BD80B584B000AF7860CF
:1017EC0039607B681B791B029BB27A685279134370
:1017FC00FB81FB894EF2FF02934262D0B3F5614F3D
:10180C0068DA4EF20202934257D04EF20202934231
:10181C0060DC4EF2010293424BD04EF20102934235
:10182C0058DC40F60762934218DCB3F5606F51DD6B
:10183C00A3F60163062B4DD801A252F823F000BF8A
:10184C00731800087F1800088B18000897180008F8
:10185C00A1180008AB180008B51800084DF6AD62C9
:10186C00934232D036E0002239687868FFF732FEB6
:10187C0036E0012239687868FFF72CFE30E002224E
:10188C0039687868FFF726FE2AE039687868FFF730
:10189C0051FE25E039687868FFF78AFE20E0396848
:1018AC007868FFF7CDFE1BE039687868FFF700FF1A
:1018BC0016E07868FFF72CFF12E07868FFF73CFF22
:1018CC000EE07868FFF74CFF0AE039687868FFF79C
:1018DC006FFF05E00422F0217868FFF7DFFD00BF01
:1018EC0000BF1037BD4680BD80B584B000AFF86036
:1018FC00B9607A60B968F868FFF76EFF00BF1037FF
:10190C00BD4680BD80B582B000AFFFF789FD786021
:10191C0000220449786801F068FA00BF0837BD4618
:10192C0080BD00BFF518000880B582B000AF002361
:10193C00FB712C4B00221A600023BB710BE0BB79AE
:10194C00294A52F82320274B1B681343254A13605E
:10195C00BB790133BB71BB79092BF0D9214B1B68C7
:10196C00002B08D0012002F0BDF803461A46FB7983
:10197C001344FB7107E0002002F0B4F803461A464A
:10198C00FB791344FB71174B00221A600023BB71C7
:10199C000BE0BB79154A52F82320124B1B681343FA
:1019AC00104A1360BB790133BB71BB79092BF0D999
:1019BC000C4B1B68002B08D0012002F0B5F8034635
:1019CC001A46FB791344FB7107E0002002F0ACF8D7
:1019DC0003461A46FB791344FB71FB79184608370A
:1019EC00BD4680BDB04400246044002488440024DB
:1019FC0080B584B000AF78600023FB7300224421D3
:101A0C007868FEF790FC03461A46FB7B1344FB7385
:101A1C00002245217868FEF786FC03461A46FB7BBC
:101A2C001344FB73002247217868FEF77CFC0346C5
:101A3C001A46FB7B1344FB73FB7B18461037BD46E1
:101A4C0080BD80B584B000AF78600023FB730F229B
:101A5C0044217868FEF767FC03461A46FB7B134467
:101A6C00FB730F2245217868FEF75DFC03461A468E
:101A7C00FB7B1344FB730F2247217868FEF753FC62
:101A8C0003461A46FB7B1344FB73FB7B184610374B
:101A9C00BD4680BD80B58AB000AFF860B9607A6091
:101AAC00FB70002387F82730FB78092B16DC082BFA
:101ABC0010DA032B02DC002B04DA0FE0043B032BBF
:101ACC000CD803E0442387F826300DE0452387F833
:101ADC00263009E0472387F8263005E097F82730B1
:101AEC00013387F8273000BF97F82730002B65D1DA
:101AFC007B6B1B0C9BB23B627B6B9BB2FB61F868F4
:101B0C00FFF776FF03461A4697F82730134487F8F9
:101B1C002730FB7803F00303112202FA03F3FB7660
:101B2C00FA7E97F826301946F868FEF7FCFB034658
:101B3C001A4697F82730134487F82730B86800F016
:101B4C003EFE03461A4697F82730134487F8273091
:101B5C0007F114033A6A1946786801F0BDFE034692
:101B6C001A4697F82730134487F8273007F11003EB
:101B7C00FA691946786801F0AFFE03461A4697F8E1
:101B8C002730134487F82730B86800F029FE034645
:101B9C001A4697F82730134487F82730F868FFF770
:101BAC0050FF03461A4697F82730134487F827301E
:101BBC007B691A043B691A433B6B1A6097F8273010
:101BCC0018462837BD4680BD80B584B000AF78601C
:101BDC000B467B8013467B700023FB737B78022BB8
:101BEC000ED0022B10DC002B02D0012B04D00BE00A
:101BFC00494B00221A600BE0474B01221A6007E0A8
:101C0C00454B02221A6003E0FB7B0133FB7300BFE0
:101C1C00FB7B002B77D17B88184601F06BFB0346CE
:101C2C00BB737B88184601F081FB03467B737B8872
:101C3C00184601F091FB03463B733B7B5B00032290
:101C4C0002FA03F3354A1360334B1B6803F00303AA
:101C5C00314A1360304B1A683B7B5B0002FA03F38A
:101C6C002D4A1360BB7B002B12D07B7B03F001034E
:101C7C00DBB2002B06D0284B1B6823F07043264A9E
:101C8C00136005E0244B1B6823F07063224A136039
:101C9C00BB7B002B1BD07B7B214A52F82330214A83
:101CAC0013601E4B1B68DA431E4B1B6813401D4A06
:101CBC0013601C4B1A68184B1B681343164A1360AD
:101CCC007B7B154A1268164941F823201EE07B7B6A
:101CDC00154A52F82330134A1360104B1B68DA4331
:101CEC00104B1B6813400F4A13600E4B1A680A4BBB
:101CFC001B681343084A13607B7B074A12680A4926
:101D0C0041F8232002E0FB7B0133FB73FB7B18467D
:101D1C001037BD4680BD00BFB4440024B844002435
:101D2C0088440024B04400246044002480B586B06C
:101D3C0000AFF8600B467A607B810023FB757B89D2
:101D4C00184601F0D7FA0346BB757B89184601F09B
:101D5C00EDFA03467B757B89184601F0FDFA0346C4
:101D6C003B75BB7D002B06D07B7D1D4A52F8233082
:101D7C001C4A136005E07B7D1B4A52F82330194A3C
:101D8C001360184B1A683B7D5B0022FA03F3154A6B
:101D9C001360144B1B6803F00303124A1360114BBE
:101DAC001B68022B0ED0022B10D8002B02D0012B5B
:101DBC0004D00BE07B6800221A700BE07B680122D8
:101DCC001A7007E07B6802221A7003E0FB7D013376
:101DDC00FB7500BFFB7D18461837BD4680BD00BFA4
:101DEC0088440024B44400246044002480B584B0AA
:101DFC0000AF78600023FB737B681B681846FEF706
:101E0C007FFA03461A46FB7B1344FB737B681B6902
:101E1C001846FEF775FA03461A46FB7B1344FB7310
:101E2C007B68DB68184600F0A6FC03461A46FB7B71
:101E3C001344FB737B689B68184600F09CFC0346BC
:101E4C001A46FB7B1344FB737B68DB69184600F076
:101E5C0092FC03461A46FB7B1344FB737B689B691D
:101E6C00184600F088FC03461A46FB7B1344FB73B0
:101E7C007B68DB68184600F0B3FC03461A46FB7B14
:101E8C001344FB737B689B68184600F0A9FC03465F
:101E9C001A46FB7B1344FB737B68DB69184600F026
:101EAC009FFC03461A46FB7B1344FB737B689B69C0
:101EBC00184600F095FC03461A46FB7B1344FB7353
:101ECC007B685B68184601F03BFC03461A46FB7BBB
:101EDC001344FB737B685B69184601F031FC0346C5
:101EEC001A46FB7B1344FB737B681B681846FFF791
:101EFC00A8FD03461A46FB7B1344FB737B681B69E6
:101F0C001846FFF79EFD03461A46FB7B1344FB73F2
:101F1C00FB7B18461037BD4680BD000080B586B0EF
:101F2C0000AF78600023FB737B681B681846FFF7D3
:101F3C0088FD03461A46FB7B1344FB737B681B69C5
:101F4C001846FFF77EFD03461A46FB7B1344FB73D2
:101F5C007B689B68184600F032FC03461A46FB7BF4
:101F6C001344FB737B689B69184600F028FC0346FE
:101F7C001A46FB7B1344FB737B68DB68184600F046
:101F8C001EFC03461A46FB7B1344FB737B68DB6920
:101F9C00184600F014FC03461A46FB7B1344FB73F3
:101FAC0000233B6103E000BF3B6901333B613B69AC
:101FBC00B3F5007FF7D37B689B68184600F010FCE4
:101FCC0003461A46FB7B1344FB737B689B691846DC
:101FDC0000F006FC03461A46FB7B1344FB737B683C
:101FEC00DB68184600F0FCFB03461A46FB7B1344E7
:101FFC00FB737B68DB69184600F0F2FB03461A465C
:10200C00FB7B1344FB73FB7B002B12D10023FB7572
:10201C000CE0FB7D0D4A002142F82310FB7D0C4A9D
:10202C00002142F82310FB7D0133FB75FB7D092B4E
:10203C00EFD9FFF779FC03461A46FB7B1344FB737D
:10204C00FB7B18461837BD4680BD00BF604400249A
:10205C008844002490B587B002AF78600023FB73EE
:10206C007B681B6844211846FEF798F903461A460C
:10207C00FB7B1344FB737B681B6845211846FEF7FA
:10208C008DF903461A46FB7B1344FB737B681B6874
:10209C0047211846FEF782F903461A46FB7B134488
:1020AC00FB737B681B6944211846FEF777F90346DE
:1020BC001A46FB7B1344FB737B681B69452118464E
:1020CC00FEF76CF903461A46FB7B1344FB737B68E3
:1020DC001B6947211846FEF761F903461A46FB7B3C
:1020EC001344FB730023BB7314E07B6818687B6894
:1020FC0099687B685A68BB7B554C0194554C00948D
:10210C00FFF7C8FC03461A46FB7B1344FB73BB7BEF
:10211C000133BB73BB7B092BE7D90023BB7336E0C0
:10212C007B6818687B6899687B685A68BB7B4A4CEB
:10213C000194484C0094FFF7ADFC03461A46FB7B18
:10214C001344FB73434B1B68414A934202D0FB7B05
:10215C000133FB737B6818687B6899687B685A68E5
:10216C00BB7B002401943B4C0094FFF793FC03468B
:10217C001A46FB7B1344FB73364B1B68364A93425F
:10218C0002D0FB7B0133FB73BB7B0133BB73BB7B8B
:10219C00092BC5D90023BB7314E07B6818697B68D5
:1021AC0099697B685A69BB7B294C0194294C009432
:1021BC00FFF770FC03461A46FB7B1344FB73BB7B97
:1021CC000133BB73BB7B092BE7D90023BB7336E010
:1021DC007B6818697B6899697B685A69BB7B1E4C64
:1021EC0001941C4C0094FFF755FC03461A46FB7BEC
:1021FC001344FB73174B1B68154A934202D0FB7BAD
:10220C000133FB737B6818697B6899697B685A6931
:10221C00BB7B002401940F4C0094FFF73BFC03465E
:10222C001A46FB7B1344FB730A4B1B680A4A934206
:10223C0002D0FB7B0133FB73BB7B0133BB73BB7BDA
:10224C00092BC5D9FB7B18461437BD4690BD00BF82
:10225C0055AA55AAB4440024AA55AA5590B587B0DE
:10226C0002AF78600B467B8013467B700023FB73B8
:10227C007B88B3F5967F17D27A787B881946786875
:10228C00FFF7A2FC03461A46FB7B1344FB737B88C7
:10229C00184601F02FF80346BB737B88184601F0F3
:1022AC0045F803467B7302E0FB7B0133FB73FB7B3E
:1022BC00002B72D1BB7B002B37D07B6818697B68F5
:1022CC0099697B685A697B7B3B4C54F823307C7B47
:1022DC0001933A4B00932346FFF7DCFB03461A4667
:1022EC00FB7B1344FB737B6818697B6899697B687B
:1022FC005A697B7B304C54F823307C7B01932F4BF9
:10230C0000932346FFF7C6FB03461A46FB7B134498
:10231C00FB737B7B284A52F82320284B1B689A427C
:10232C003ED0FB7B0133FB733AE07B6818687B681B
:10233C0099687B685A687B7B214C54F823307C7BF2
:10234C0001931E4B00932346FFF7A4FB03461A464A
:10235C00FB7B1344FB737B6818687B6899687B680C
:10236C005A687B7B164C54F823307C7B0193134BBF
:10237C0000932346FFF78EFB03461A46FB7B134460
:10238C00FB737B7B0E4A52F823200C4B1B689A4242
:10239C0006D0FB7B0133FB7302E0FB7B0133FB7349
:1023AC00FFF7C2FA03461A46FB7B1344FB73FB7B15
:1023BC0018461437BD4690BD88440024B044002410
:1023CC006044002480B586B000AFF8600B467A609C
:1023DC007B810023FB757B89B3F5967F0BD27B89C0
:1023EC007A681946F868FFF7A1FC03461A46FB7D8C
:1023FC001344FB7502E0FB7D0133FB75FB7D184636
:10240C001837BD4680BD000090B587B002AF78602C
:10241C0039600023FB730023BB8110E0BB893A6851
:10242C0013441A78BB8919467868FFF7CDFB03462D
:10243C001A46FB7B1344FB73BB890133BB81BB89FD
:10244C00B3F5967FEAD3FB7B002B76D10023FB728E
:10245C0070E07B6818687B6899687B685A68FB7ABF
:10246C003C4C54F82330FC7A01933B4B00932346AD
:10247C00FFF710FB03461A46FB7B1344FB737B6888
:10248C0018687B6899687B685A68FB7A314C54F8F9
:10249C002330FC7A0193304B00932346FFF7FAFA72
:1024AC0003461A46FB7B1344FB73FB7A294A52F80A
:1024BC002320294B1B689A4202D0FB7B0133FB7310
:1024CC007B6818697B6899697B685A69FB7A234C2D
:1024DC0054F82330FC7A01931F4B00932346FFF7EB
:1024EC00D9FA03461A46FB7B1344FB737B681869C5
:1024FC007B6899697B685A69FB7A184C54F82330CD
:10250C00FC7A0193144B00932346FFF7C3FA03465E
:10251C001A46FB7B1344FB73FB7A104A52F82320B8
:10252C000D4B1B689A4202D0FB7B0133FB73FB7A89
:10253C000133FB72FB7A092B8BD9FFF7F5F90346B4
:10254C001A46FB7B1344FB73FB7B18461437BD46C2
:10255C0090BD00BF60440024B04400248844002493
:10256C0080B584B000AF786039600023FB73002322
:10257C00BB810FE0BB893A681A44BB89194678685D
:10258C00FFF7D4FB03461A46FB7B1344FB73BB8952
:10259C000133BB81BB89B3F5967FEBD3FB7B18462C
:1025AC001037BD4680BD0000B0B586B002AF786074
:1025BC000B46FB700023FB730023BB810DE0FA7804
:1025CC00BB8919467868FFF7FFFA03461A46FB7B6E
:1025DC001344FB73BB890133BB81BB89B3F5967F75
:1025EC00EDD3FB7B002B7AD100237B8174E07B68DD
:1025FC0018687B6899687B685A687B89DCB27B8930
:10260C003D4D55F8233001933C4B00932346FFF787
:10261C0041FA03461A46FB7B1344FB737B6818682C
:10262C007B6899687B685A687B89DCB27B89324D00
:10263C0055F823300193314B00932346FFF72AFAC8
:10264C0003461A46FB7B1344FB737B892A4A52F8D8
:10265C0023202A4B1B689A4202D0FB7B0133FB736D
:10266C007B6818697B6899697B685A697B89DCB2DD
:10267C007B89234D55F823300193204B009323463F
:10268C00FFF708FA03461A46FB7B1344FB737B687F
:10269C0018697B6899697B685A697B89DCB27B898C
:1026AC00174D55F823300193144B00932346FFF735
:1026BC00F1F903461A46FB7B1344FB737B89104AE2
:1026CC0052F823200D4B1B689A4202D0FB7B01333E
:1026DC00FB737B8901337B817B89092B87D9FFF7BE
:1026EC0023F903461A46FB7B1344FB73FB7B18460A
:1026FC001037BD46B0BD00BF60440024B044002478
:10270C008844002480B485B000AF78600A4BD3F8BD
:10271C00E02009497B681343C1F8E030064BD3F83D
:10272C00E0207B681340FB60FB6800BF1437BD469C
:10273C005DF8047B704700BF0044025880B483B03E
:10274C0000AF786039607B683A689A6100BF0C37DB
:10275C00BD465DF8047B704780B483B000AF7860F1
:10276C0039603B681A047B689A6100BF0C37BD4620
:10277C005DF8047B704780B588B000AF78607B68EB
:10278C001B681846FFF7BEFF7B689B68BB607B68C5
:10279C00DB68FB607B681B693B6100237B617B68AA
:1027AC005B69BB617B685B6807F1080211461846E0
:1027BC0002F00CFB002318462037BD4680BD80B5C7
:1027CC0082B000AF78607B685A687B689B6819465A
:1027DC001046FFF7C1FF002318460837BD4680BDE1
:1027EC0080B582B000AF78607B685A687B689B6864
:1027FC0019461046FFF7A2FF002318460837BD46BE
:10280C0080BD000080B485B000AF78600A4BD3F86F
:10281C00E02009497B681343C1F8E030064BD3F83C
:10282C00E0207B681340FB60FB6800BF1437BD469B
:10283C005DF8047B704700BF0044025880B485B03B
:10284C0000AF78600A4BD3F8E42009497B68134346
:10285C00C1F8E430064BD3F8E4207B681340FB60EE
:10286C00FB6800BF1437BD465DF8047B704700BFA2
:10287C000044025880B485B000AF78600A4BD3F89E
:10288C00E82009497B681343C1F8E830064BD3F8BC
:10289C00E8207B681340FB60FB6800BF1437BD4623
:1028AC005DF8047B704700BF0044025880B485B0CB
:1028BC0000AF78600A4BD3F8F02009497B681343CA
:1028CC00C1F8F030064BD3F8F0207B681340FB6066
:1028DC00FB6800BF1437BD465DF8047B704700BF32
:1028EC000044025880B485B000AF78600A4BD3F82E
:1028FC00F42009497B681343C1F8F430064BD3F834
:10290C00F4207B681340FB60FB6800BF1437BD46A6
:10291C005DF8047B704700BF0044025880B483B05C
:10292C0000AF78607B681B6843F001027B681A601B
:10293C0000BF0C37BD465DF8047B704780B483B094
:10294C0000AF78607B689B6903F00203022B01D116
:10295C00012300E0002318460C37BD465DF8047BCC
:10296C00704780B483B000AF78607B689B6903F0DC
:10297C000403042B01D1012300E0002318460C377B
:10298C00BD465DF8047B704780B483B000AF7860BF
:10299C007B689B6903F02003202B01D1012300E00D
:1029AC00002318460C37BD465DF8047B704780B495
:1029BC0083B000AF78607B68DB6943F020027B68F2
:1029CC00DA6100BF0C37BD465DF8047B7047000030
:1029DC0080B487B000AFF860B9607A603B60BB68C8
:1029EC00C3F309027B6803F400631A433B681B04BE
:1029FC0003F47F031A433B6A1A437B6A134323F0A5
:102A0C0000437B61FB685A687B6A5B0D03F4806151
:102A1C00064B0B43DB431A407B691A43FB685A6035
:102A2C0000BF1C37BD465DF8047B7047FF7BFF037E
:102A3C0080B483B000AF78607B685B6ADBB2184609
:102A4C000C37BD465DF8047B704780B483B000AF93
:102A5C0078600B46FB70FA787B689A6200BF0C3783
:102A6C00BD465DF8047B704780B485B000AF7860DC
:102A7C007B68DAB2104B1344FB60FB681A687B6806
:102A8C00190E7B681B0A03F01F0301FA03F3DB43E7
:102A9C001A407B681B0CD9B27B681B0A03F01F031E
:102AAC0001FA03F31A43FB681A6000BF1437BD46E2
:102ABC005DF8047B704700BF4C44025880B582B06F
:102ACC0000AF78607868FFF7CFFF00BF0837BD46CE
:102ADC0080BD000080B590B000AF7860002387F80F
:102AEC003F307B685B681846FFF78CFE7B68DB68C1
:102AFC007B620223BB620323FB6201233B63002343
:102B0C007B637B681B69BB637B689B6807F1240252
:102B1C001146184602F05AF97B681B78012B12D12A
:102B2C007B685B691846FFF76DFE7B68DB697B622F
:102B3C007B681B6ABB637B689B6907F124021146A7
:102B4C00184602F043F97B68DB6A1846FFF7B6FFBC
:102B5C007B6893F82430032B22D801A252F823F07F
:102B6C007D2B0008892B0008952B0008A12B000851
:102B7C007B689B6A1846FFF77DFE17E07B689B6AB3
:102B8C001846FFF793FE11E07B689B6A1846FFF727
:102B9C0055FE0BE07B689B6A1846FFF7A3FE05E029
:102BAC0097F83F30013387F83F3000BF0023BB60FC
:102BBC007B689B6BFB607B68DB6B3B617B681B6C96
:102BCC007B610023BB617B685B6CFB617B689B6CEE
:102BDC003B627B685B6B07F108021146184602F0FA
:102BEC0007FA7B685B6B1846FFF798FE97F83F3047
:102BFC0018464037BD4680BD90B589B002AFF8602D
:102C0C007A601A460B46FB721346BB720023FB75A7
:102C1C00FB68586BF97AFB689A6CBB7A194C019477
:102C2C004FF000740094FFF7D3FE14E000BFFB6874
:102C3C005B6B1846FFF782FE0346002BF7D0FB6850
:102C4C00586BFB7D7A6813441B781946FFF7FDFE21
:102C5C00FB7D0133FB75FA7DBB7A9A42E6D300BF4C
:102C6C00FB685B6B1846FFF78FFE0346002BF7D013
:102C7C00FB685B6B1846FFF79AFE002318461C375F
:102C8C00BD4690BD0020008090B589B002AFF860C1
:102C9C007A601A460B46FB721346BB720023FB7517
:102CAC00FB68586BF97ABB7A1A4A01924FF00072A2
:102CBC0000920022FFF78CFE15E000BFFB685B6BF7
:102CCC001846FFF74EFE0346002BF7D0FB68596BF6
:102CDC00FB7D7A68D4180846FFF7AAFE03462370DA
:102CEC00FB7D0133FB75FA7DBB7A9A42E5D300BFBD
:102CFC00FB685B6B1846FFF747FE0346002BF7D0CB
:102D0C00FB685B6B1846FFF752FE002318461C3716
:102D1C00BD4690BD0024008080B485B000AFF86043
:102D2C00B9601346FB71FB79022B05D0FB797E2B26
:102D3C0002D0FB792D2B19D1BB681B885A1C91B280
:102D4C00BA6811801A46FB6813442D221A70BB68AE
:102D5C001B885A1C91B2BA6811801A46FB6813443E
:102D6C00FA7982F02D02D2B21A700BE0BB681B8884
:102D7C005A1C91B2BA6811801A46FB681344FA794E
:102D8C001A7000BF00BF1437BD465DF8047B704756
:102D9C0080B483B000AF786039607B681A783B6888
:102DAC001A707B6801331A783B685A707B6802335F
:102DBC001B781BB21B021AB27B6803331B781BB245
:102DCC0013431BB29AB23B685A807B6804331A785F
:102DDC003B681A717B6805331A783B685A7100BFDF
:102DEC000C37BD465DF8047B704780B485B000AFEE
:102DFC00F860B9607A60FB6800221A70FB680022E8
:102E0C005A80FB6800229A80FB680022DA80FB68FB
:102E1C0000221A72FB6803F580531A46BB68936153
:102E2C00FB6803F580531A467B68D361FB6803F596
:102E3C0080531A4600231362FB6803F580531A462D
:102E4C000023536200BF1437BD465DF8047B704706
:102E5C0090B589B000AFF860B9607A600023FB616F
:102E6C0037E1BA68FB6913441B78FB760023BB7609
:102E7C00FB681B78022B00F0A180022B00F3A880CA
:102E8C00002B02D0012B14D0A2E0FB7E022B40F0D1
:102E9C001A81FB6800225A80FB6800229A80FB682A
:102EAC000022DA80FB6800221A72FB6801221A7079
:102EBC0009E1FB7E2D2B03D1FB6802221A7005E180
:102ECC00FB7E022B15D1FB6800225A80FB68002286
:102EDC009A80FB680022DA80FB6800221A72FB6879
:102EEC0003F580535B6A0133FA6802F58052536232
:102EFC00ECE0FB7E7E2B5ED1FB689B8806333B832C
:102F0C00FB685B883A8B9A4246D8FB681B7A022B8B
:102F1C0042D1FB6809333A8B1146184600F048FE43
:102F2C000346FB82FB68DB88FA8A9A422AD1FB684B
:102F3C0003F10900FA6841F2120313441946FFF732
:102F4C0027FFFB6803F580531B6A0133FA6802F50F
:102F5C0080521362FB6803F580539B69002B25D0CC
:102F6C00FB6803F580539C69FA6841F21203134421
:102F7C00FA6802F10F01FA6802F58052D26918461C
:102F8C00A04713E0FB6803F580535B6A0133FA68D2
:102F9C0002F58052536209E0FB6803F580535B6ACB
:102FAC000133FA6802F58052536200E000BFFB68FF
:102FBC0000221A708AE00123BB7609E0FB7E83F0C5
:102FCC002D03FB76FB6801221A700123BB7600BF30
:102FDC00BB7E83F00103DBB2002B76D1FB689B88B0
:102FEC000633BB82FB685B88052B2ED8FB685B889D
:102FFC0041F20702934206D8FB685B881A46FB68CD
:10300C001344FA7E5A72FB685B88032B54D1FB681D
:10301C00DB7A1BB21B021AB2FB7E1BB213431BB230
:10302C009AB2FB689A80FB689B88B3F5805F43D9A2
:10303C00FB6800221A70FB6803F580535B6A01334E
:10304C00FA6802F58052536240E0FB685B88BA8AEA
:10305C009A420DD9FB685B8841F2070293422BD848
:10306C00FB685B881A46FB681344FA7E5A7223E0AD
:10307C00FB681B7A012B12D8FB68DB881BB21B0286
:10308C001AB2FB7E1BB213431BB29AB2FB68DA80F6
:10309C00FB681B7A0133DAB2FB681A720CE0FB682E
:1030AC0000221A70FB6803F580535B6A0133FA68DF
:1030BC0002F58052536209E0FB685B8801339AB2D7
:1030CC00FB685A8002E000BF00E000BFFB690133DF
:1030DC00FB61FA697B689A42FFF4C3AE00BF00BF84
:1030EC002437BD4690BD80B584B000AF78600846EB
:1030FC0011461A460346FB700B46BB7013467B7099
:10310C0000233B813B8CB3F5805F02D94FF4805395
:10311C003B844FF6FF73FB81FA78FB891146184606
:10312C0000F024FD0346FB81BA78FB891146184652
:10313C0000F01CFD0346FB813B8C1B0A9BB2DAB2F0
:10314C00FB891146184600F011FD0346FB813B8CB0
:10315C00DAB2FB891146184600F008FD0346FB81E4
:10316C007A78FB891146184600F000FD0346FB8176
:10317C003A7EFB891146184600F0F8FC0346FB81A9
:10318C000023BB810DE0BB89FA6913441A78FB89D3
:10319C001146184600F0EAFC0346FB81BB8901335B
:1031AC00BB81BA893B8C9A42EDD33B895A1C92B2B3
:1031BC003A811A467B68134402221A70FA7807F196
:1031CC00080319467868FFF7A7FDBA7807F10803DA
:1031DC0019467868FFF7A0FD3B8C1B0A9BB2DAB24C
:1031EC0007F1080319467868FFF796FD3B8CDAB2B5
:1031FC0007F1080319467868FFF78EFD7A7807F116
:10320C00080319467868FFF787FD3A7E07F1080333
:10321C0019467868FFF780FD00237B810CE07B89E1
:10322C00FA6913441A7807F1080319467868FFF70E
:10323C0073FD7B8901337B817A893B8C9A42EED377
:10324C00FB891B0A9BB2DAB207F1080319467868AE
:10325C00FFF762FDFB89DAB207F1080319467868BB
:10326C00FFF75AFD3B895A1C92B23A811A467B6889
:10327C0013447E221A703B8918461037BD4680BD18
:10328C0080B483B000AF0346FB80FB88074AA2FBE7
:10329C0003231B099AB2064B1A80054B1B88DBB221
:1032AC0018460C37BD465DF8047B704789888888C2
:1032BC00BE44002480B483B000AF0346FB80FA8880
:1032CC000A4BA3FB021319090B461B015B1A5B008B
:1032DC00D31A9AB2064B1A80054B1B88DBB21846E0
:1032EC000C37BD465DF8047B704700BF8988888821
:1032FC00BE44002480B582B000AF0346FB80FB883F
:10330C001846FFF7D7FF03461A46074B1A80064BA1
:10331C001B881B099AB2044B1A80034B1B88DBB227
:10332C0018460837BD4680BDBE44002480B582B027
:10333C0000AF0346FB80FB881846FFF7A1FF03464E
:10334C001A46044B1A80034B1B88DBB2184608370D
:10335C00BD4680BDBE44002480B584B000AF03469A
:10336C00FB80FB881846FFF78BFF0346FB81FB882D
:10337C001846FFF79FFF03461A46144B1A80FB8929
:10338C0003F001039BB2002B12D1104B1B889B083E
:10339C00BB810E4B1B8803F003037B81BB899B0015
:1033AC009AB27B89D31A9BB203339AB2074B1A8019
:1033BC00064B1B8803F00F039AB2044B1A80034B85
:1033CC001B88DBB218461037BD4680BDBE440024B6
:1033DC0080B485B000AF78600A4BD3F8E02009497F
:1033EC007B681343C1F8E030064BD3F8E0207B68D0
:1033FC001340FB60FB6800BF1437BD465DF8047BCF
:10340C00704700BF0044025880B485B000AF7860AC
:10341C000A4BD3F8E42009497B681343C1F8E43024
:10342C00064BD3F8E4207B681340FB60FB6800BFBD
:10343C001437BD465DF8047B704700BF004402584A
:10344C0080B485B000AF78600A4BD3F8E820094906
:10345C007B681343C1F8E830064BD3F8E8207B684F
:10346C001340FB60FB6800BF1437BD465DF8047B5E
:10347C00704700BF0044025880B485B000AF78603C
:10348C000A4BD3F8F02009497B681343C1F8F0309C
:10349C00064BD3F8F0207B681340FB60FB6800BF41
:1034AC001437BD465DF8047B704700BF00440258DA
:1034BC0080B485B000AF78600A4BD3F8F42009498A
:1034CC007B681343C1F8F430064BD3F8F4207B68C7
:1034DC001340FB60FB6800BF1437BD465DF8047BEE
:1034EC00704700BF0044025880B483B000AF7860CE
:1034FC007B681B6843F001027B681A6000BF0C37C5
:10350C00BD465DF8047B704780B483B000AF786033
:10351C007B68DB6823F000427B68DA6000BF0C3705
:10352C00BD465DF8047B704780B483B000AF786013
:10353C007B681B6843F400727B681A6000BF0C3711
:10354C00BD465DF8047B704780B483B000AF7860F3
:10355C007B681B6823F480727B681A6000BF0C3791
:10356C00BD465DF8047B704780B483B000AF7860D3
:10357C0039607B68DB6823F460123B681A437B6814
:10358C00DA6000BF0C37BD465DF8047B704780B431
:10359C0083B000AF786039607B689B6823F4F0726D
:1035AC003B681A437B689A6000BF0C37BD465DF8D8
:1035BC00047B704780B483B000AF78607B68DB68B5
:1035CC0023F080427B68DA6000BF0C37BD465DF8A3
:1035DC00047B704780B483B000AF78607B685B6914
:1035EC0003F00103012B01D1012300E00023184655
:1035FC000C37BD465DF8047B704780B483B000AFD8
:10360C0078607B685B6903F00203022B01D1012314
:10361C0000E0002318460C37BD465DF8047B70476C
:10362C0080B483B000AF78607B6830331B78DBB23A
:10363C0018460C37BD465DF8047B704780B485B0E6
:10364C0000AF78607B683033FB60FB681B889BB2F3
:10365C0018461437BD465DF8047B704780B483B0C0
:10366C0000AF78607B681B6B18460C37BD465DF865
:10367C00047B704780B483B000AF78600B46FB705E
:10368C007B682033FA781A7000BF0C37BD465DF8A2
:10369C00047B704780B485B000AF78600B467B80AC
:1036AC007B682033FB60FB687A881A8000BF143774
:1036BC00BD465DF8047B704780B483B000AF786082
:1036CC0039607B683A681A6200BF0C37BD465DF8FA
:1036DC00047B704780B485B000AF78607B68DAB249
:1036EC00104B1344FB60FB681A687B68190E7B68EF
:1036FC001B0A03F01F0301FA03F3DB431A407B6838
:10370C001B0CD9B27B681B0A03F01F0301FA03F3ED
:10371C001A43FB681A6000BF1437BD465DF8047B82
:10372C00704700BF4C44025880B582B000AF78603F
:10373C007868FFF7CFFF00BF0837BD4680BD00009B
:10374C0080B594B000AF7860002387F84F307B6869
:10375C005B681846FFF73CFE7B68DB687B630223E3
:10376C00BB630123FB6300233B6400237B647B6806
:10377C001B69BB647B689B6807F1340211461846D1
:10378C0001F024FB7B681B78012B25D17B685B69DE
:10379C001846FFF71DFE7B68DB697B637B681B6A41
:1037AC00BB647B689B6907F134021146184601F033
:1037BC000DFB7B685B6A1846FFF70AFE7B68DB6AC9
:1037CC007B637B681B6BBB647B689B6A07F1340271
:1037DC001146184601F0FAFA7B68DB6B1846FFF7C6
:1037EC00A3FF7B6893F83430032B23D801A252F843
:1037FC0023F000BF113800081D38000829380008D4
:10380C00353800087B689B6B1846FFF719FE13E0F0
:10381C007B689B6B1846FFF72FFE0DE07B689B6B5C
:10382C001846FFF7F1FD07E07B689B6B1846FFF726
:10383C003FFE01E001234AE07B685B6CFB604FF4C8
:10384C0080033B617B689B6C7B617B68DB6CBB6141
:10385C007B681B6DFB614FF080633B627B685B6D2B
:10386C007B627B689B6DBB620023FB6200233B6326
:10387C007B681B6C07F10C021146184601F036FCF4
:10388C007B681B6C1846FFF73FFE7B681B6C184669
:10389C00FFF75AFE7B681B6C00211846FFF764FE8D
:1038AC007B681B6C00211846FFF771FE7B681B6C54
:1038BC001846FFF77FFE7B681B6C1846FFF714FE5B
:1038CC007B681B6C1846FFF72FFE97F84F30184695
:1038DC005037BD4680BD00BF80B584B000AFF860E6
:1038EC00B9607A6000BFFB681B6C1846FFF785FE59
:1038FC000346002BF7D0FB689B6C073B182B4FD86B
:10390C0001A252F823F000BF79390008AD39000844
:10391C00AD390008AD390008AD390008AD390008E3
:10392C00AD390008AD3900088B390008AD390008F5
:10393C009D390008AD390008AD390008AD390008D3
:10394C00AD390008AD3900089D390008AD390008C3
:10395C00AD390008AD390008AD390008AD390008A3
:10396C00AD390008AD3900089D390008FB681B6CA7
:10397C007A68D2B211461846FFF77CFE10E0FB685D
:10398C001B6C7A6892B211461846FFF783FE07E06B
:10399C00FB681B6C79681846FFF78EFE00BFFFE7CB
:1039AC0000BFFB681B6C1846FFF714FE0346002B88
:1039BC00F7D0FB689B6C073B182B52D801A252F82E
:1039CC0023F000BF353A00086F3A00086F3A000840
:1039DC006F3A00086F3A00086F3A00086F3A000817
:1039EC006F3A0008493A00086F3A00085D3A00083F
:1039FC006F3A00086F3A00086F3A00086F3A0008F7
:103A0C006F3A00085D3A00086F3A00086F3A0008F8
:103A1C006F3A00086F3A00086F3A00086F3A0008D6
:103A2C006F3A00085D3A0008FB681B6C1846FFF7FC
:103A3C00F7FD03461A46BB681A6012E0FB681B6C64
:103A4C001846FFF7FBFD03461A46BB681A6008E0F0
:103A5C00FB681B6C1846FFF701FE0246BB681A6038
:103A6C0000BF002318461037BD4680BD80B582B01C
:103A7C0000AF0023FB710A48FEF77DFE03461A4691
:103A8C00FB791344FB710748FEF775FE03461A4693
:103A9C00FB791344FB71FB7918460837BD4680BD92
:103AAC00000000241800002480B582B000AF002371
:103ABC00FB710A48FEF783FE03461A46FB79134452
:103ACC00FB710748FEF77BFE03461A46FB7913444D
:103ADC00FB71FB7918460837BD4680BD00000024F9
:103AEC001800002480B584B000AF0346FB7100239E
:103AFC00FB73FB79012B08D10A48FEF771FE0346D4
:103B0C001A46FB7B1344FB7307E00648FEF757FE8F
:103B1C0003461A46FB7B1344FB73FB7B184610379A
:103B2C00BD4680BD0000002480B584B000AF0346C4
:103B3C00FB710023FB73FB79012B08D10A48FEF7BC
:103B4C004FFE03461A46FB7B1344FB7307E0064803
:103B5C00FEF735FE03461A46FB7B1344FB73FB7BD7
:103B6C0018461037BD4680BD1800002480B483B0C1
:103B7C0000AF03460A46FB8013467B71B7F906304B
:103B8C001B021AB2FB881B0A9BB219467B794B406D
:103B9C00DBB2064931F813301BB253401BB29BB257
:103BAC0018460C37BD465DF8047B70478C530008F3
:103BBC0080B584B000AF78600B467B804FF6FF7306
:103BCC00FB810023BB810DE0BB897A6813441A7812
:103BDC00FB8911461846FFF7C9FF0346FB81BB89D9
:103BEC000133BB81BA897B889A42EDD3FB89184695
:103BFC001037BD4680BD000080B485B000AF786042
:103C0C007B6803F00703FB600B4BDB68BB60BA6897
:103C1C004FF6FF031340BB60FB681A02BB681A43E4
:103C2C00064B1343BB60044ABB68D36000BF143718
:103C3C00BD465DF8047B704700ED00E00000FA051E
:103C4C0080B400AF044BDB681B0A03F00703184673
:103C5C00BD465DF8047B704700ED00E080B483B096
:103C6C0000AF03463960FB80B7F90630002B0ADB46
:103C7C003B68DAB20C49B7F906301201D2B20B44E8
:103C8C0083F800230AE03B68DAB20849FB8803F0AA
:103C9C000F03043B1201D2B20B441A7600BF0C374F
:103CAC00BD465DF8047B704700E100E000ED00E0EC
:103CBC0080B489B000AFF860B9607A60FB6803F03B
:103CCC000703FB61FB69C3F10703042B28BF042323
:103CDC00BB61FB690433062B02D9FB69033B00E093
:103CEC0000237B614FF0FF32BB6902FA03F3DA4326
:103CFC00BB681A407B699A404FF0FF317B6901FA2F
:103D0C0003F3D9437B680B40134318462437BD4655
:103D1C005DF8047B7047000080B400AF054B1B6856
:103D2C00044A43F48033136000BFBD465DF8047B46
:103D3C00704700BF0044025880B400AF074B1B68AB
:103D4C0003F40033B3F5003F01D1012300E000235D
:103D5C001846BD465DF8047B704700BF004402580E
:103D6C0080B483B000AF7860064B1B6923F0070268
:103D7C0004497B6813430B6100BF0C37BD465DF8EB
:103D8C00047B70470044025880B400AF044B1B699D
:103D9C0003F038031846BD465DF8047B704700BF3E
:103DAC000044025880B483B000AF7860064B9B6926
:103DBC0023F4706204497B6813438B6100BF0C379A
:103DCC00BD465DF8047B70470044025880B483B054
:103DDC0000AF7860064B9B6923F00F0204497B68A7
:103DEC0013438B6100BF0C37BD465DF8047B7047F5
:103DFC000044025880B483B000AF7860064BDB6996
:103E0C0023F0700204497B681343CB6100BF0C376D
:103E1C00BD465DF8047B70470044025880B483B003
:103E2C0000AF7860064BDB6923F4E06204497B68E1
:103E3C001343CB6100BF0C37BD465DF8047B704764
:103E4C000044025880B483B000AF7860064B9B6985
:103E5C0023F0700204497B6813438B6100BF0C375D
:103E6C00BD465DF8047B70470044025880B483B0B3
:103E7C0000AF7860064B1B6A23F0700204497B6824
:103E8C0013430B6200BF0C37BD465DF8047B7047D3
:103E9C000044025880B483B000AF7860064B9B6A34
:103EAC0023F0030204497B6813438B6200BF0C3779
:103EBC00BD465DF8047B70470044025880B400AFE7
:103ECC00054B1B68044A43F08073136000BFBD466A
:103EDC005DF8047B704700BF0044025880B400AF0B
:103EEC00054B1B68044A23F08073136000BFBD466A
:103EFC005DF8047B704700BF0044025880B400AFEB
:103F0C00074B1B6803F00073B3F1007F01D1012351
:103F1C0000E000231846BD465DF8047B704700BFE7
:103F2C000044025880B400AF054BDB6A044A43F4EA
:103F3C008033D36200BFBD465DF8047B704700BF81
:103F4C000044025880B400AF074BDB6A03F48033A3
:103F5C00B3F5803F01D1012300E000231846BD4694
:103F6C005DF8047B704700BF0044025880B483B0F6
:103F7C0000AF7860074BDB6A23F002027B685B00C2
:103F8C0004491343CB6200BF0C37BD465DF8047B7C
:103F9C00704700BF0044025880B483B000AF786013
:103FAC00074BDB6A23F00C027B689B00044913432C
:103FBC00CB6200BF0C37BD465DF8047B704700BF79
:103FCC000044025880B483B000AF7860074B1A6B82
:103FDC00074B13407A68013A044913430B6300BF43
:103FEC000C37BD465DF8047B704700BF0044025897
:103FFC0000FEFFFF80B483B000AF7860074B9B6A74
:10400C0023F47C727B681B01044913438B6200BF51
:10401C000C37BD465DF8047B704700BF0044025866
:10402C0080B483B000AF7860074B1B6B23F47E42E7
:10403C007B68013B5B02044913430B6300BF0C37E5
:10404C00BD465DF8047B70470044025880B483B0D1
:10405C0000AF7860074B1B6B23F4FE027B68013BBF
:10406C001B04044913430B6300BF0C37BD465DF8BA
:10407C00047B70470044025880B483B000AF786072
:10408C00074B1B6B23F0FE427B68013B1B0604496C
:10409C0013430B6300BF0C37BD465DF8047B7047C0
:1040AC000044025880B400AF054B1B68044A43F02F
:1040BC008053136000BFBD465DF8047B704700BFA2
:1040CC000044025880B400AF054B1B68044A23F02F
:1040DC008053136000BFBD465DF8047B704700BF82
:1040EC000044025880B400AF074B1B6803F0005328
:1040FC00B3F1005F01D1012300E000231846BD4657
:10410C005DF8047B704700BF0044025880B400AFD8
:10411C00054BDB6A044A43F48003D36200BFBD46FF
:10412C005DF8047B704700BF0044025880B400AFB8
:10413C00054BDB6A044A43F40003D36200BFBD465F
:10414C005DF8047B704700BF0044025880B400AF98
:10415C00054BDB6A044A43F08073D36200BFBD4653
:10416C005DF8047B704700BF0044025880B400AF78
:10417C00074BDB6A03F48003B3F5800F01D10123F5
:10418C0000E000231846BD465DF8047B704700BF75
:10419C000044025880B400AF074BDB6A03F4000301
:1041AC00B3F5000F01D1012300E000231846BD46F2
:1041BC005DF8047B704700BF0044025880B400AF28
:1041CC00074BDB6A03F08073B3F1807F01D10123CD
:1041DC0000E000231846BD465DF8047B704700BF25
:1041EC000044025880B483B000AF7860074BDB6AA0
:1041FC0023F400727B685B0204491343CB6200BF5B
:10420C000C37BD465DF8047B704700BF0044025874
:10421C0080B483B000AF7860074BDB6A23F4406254
:10422C007B689B0204491343CB6200BF0C37BD462D
:10423C005DF8047B704700BF0044025880B483B023
:10424C0000AF7860074B1A6C074B13407A68013A41
:10425C00044913430B6400BF0C37BD465DF8047B67
:10426C00704700BF0044025800FEFFFF80B483B0CB
:10427C0000AF7860074B9B6A23F07C727B681B0550
:10428C00044913438B6200BF0C37BD465DF8047BB9
:10429C00704700BF0044025880B483B000AF786010
:1042AC00074B1B6C23F47E427B68013B5B02044989
:1042BC0013430B6400BF0C37BD465DF8047B70479D
:1042CC000044025880B483B000AF7860074B1B6C7D
:1042DC0023F4FE027B68013B1B04044913430B646B
:1042EC0000BF0C37BD465DF8047B70470044025894
:1042FC0080B483B000AF7860074B1B6C23F0FE4298
:10430C007B68013B1B06044913430B6400BF0C374D
:10431C00BD465DF8047B70470044025880B485B0FC
:10432C0000AF78600A4BD3F8E02009497B6813434F
:10433C00C1F8E030064BD3F8E0207B681340FB60FB
:10434C00FB6800BF1437BD465DF8047B704700BFA7
:10435C000044025880B485B000AF78600A4BD3F8A3
:10436C00F42009497B681343C1F8F430064BD3F8A9
:10437C00F4207B681340FB60FB6800BF1437BD461C
:10438C005DF8047B704700BF0044025880B483B0D2
:10439C0000AF7860064B1B6823F00F0204497B6862
:1043AC0013430B6000BF0C37BD465DF8047B7047B0
:1043BC000020005280B400AF044B1B6803F00F03C5
:1043CC001846BD465DF8047B704700BF00200052C4
:1043DC0080B483B000AF7860084A7B6843F0010377
:1043EC005360BFF34F8F00BFBFF36F8F00BF00BF91
:1043FC000C37BD465DF8047B704700BF90ED00E0C4
:10440C0080B400AFBFF35F8F00BF044B00225A6033
:10441C0000BFBD465DF8047B704700BF90ED00E027
:10442C0080B485B000AFF860B9607A603B600B4A2D
:10443C00FB689360094A7B6823F01F03D360BB6859
:10444C001A023B681343054A43F00103136100BF92
:10445C001437BD465DF8047B704700BF90ED00E05B
:10446C0080B483B000AF7860064BDB6823F03F026A
:10447C0004497B681343CB6000BF0C37BD465DF825
:10448C00047B70470048025880B483B000AF78605A
:10449C00064B9B6923F4404204497B6813438B61B0
:1044AC0000BF0C37BD465DF8047B704700480258CE
:1044BC0080B400AF074B9B6903F40053B3F5005F66
:1044CC0001D1012300E000231846BD465DF8047BB2
:1044DC00704700BF0048025890B585B002AF00236A
:1044EC00FB7100F053F800F081F800F0F9F800F0DF
:1044FC00FEF800F03FF903461A46FB791344FB71B2
:10450C0000BFFB79002BFCD100F072F903461A4670
:10451C00FB791344FB71FB79002B0BD100F04CF9A8
:10452C0003461A46FB791344FB7100BFFB79002B41
:10453C00FCD106E000F040F903461A46FB7913441F
:10454C00FB71104B1B78DBB2002BFAD0FCF744FF4D
:10455C000346002BF5D00B4B58780A4B9978094B36
:10456C00DA78084B1C79074B03F58053DB880193F1
:10457C00054B00932346FCF7C7FE024B00221A7032
:10458C00DFE700BF2C3300243133002480B500AFAB
:10459C0000F094F80220FFF7DDFE0320FFF72CFB60
:1045AC00FFF74EFB034600220F211846FFF780FB56
:1045BC00034619464FF0FF30FFF750FB0320FFF77F
:1045CC00E5FE00BFFFF7F6FE0346032BFAD12620CB
:1045DC00FFF746FF0020FFF757FF00BFFFF768FF0C
:1045EC000346002BFAD000BF00BF80BD80B500AFE2
:1045FC008020FFF793FEFFF78FFB00BFFFF79CFBBC
:10460C000346012BFAD1FFF769FC00BFFFF776FCDC
:10461C000346002BFAD1FFF785FC0220FFF73AFC8A
:10462C000120FFF7B9FC0020FFF7A0FC0820FFF7E2
:10463C00E1FC4FF48070FFF7C5FC0120FFF7F0FCA4
:10464C000220FFF703FD0220FFF716FDFFF736FCF3
:10465C0000BFFFF753FC0346012BFAD100BFFFF755
:10466C0071FC0346012BFAD10820FFF7AFFB0320A6
:10467C00FFF776FB00BFFFF787FB0346182BFAD139
:10468C000020FFF78FFB0820FFF7A0FB4020FFF76F
:10469C00B1FB4FF48060FFF7C1FB4020FFF7D2FB6A
:1046AC004020FFF7E3FB044800F0B8FD024800F09F
:1046BC00C3FD00BF80BD00BF0080841E80B500AF6D
:1046CC00FFF79EFE054B002287210020FFF7A8FE76
:1046DC000420FFF77DFE00BF80BD00BF3E0004102C
:1046EC0080B400AF00BFBD465DF8047B704780B559
:1046FC0000AFFFF7E7FC00BFFFF7F4FC0346002B0D
:10470C00FAD1FFF703FDFFF711FDFFF71FFD0120A5
:10471C00FFF77EFD0020FFF765FD0820FFF7A6FDE3
:10472C008020FFF78BFD0220FFF7B6FD0220FFF77C
:10473C00C9FD0220FFF7DCFDFFF7B4FC00BFFFF75B
:10474C00D1FC0346012BFAD100BFFFF70FFD034646
:10475C00012BFAD100BFFFF71DFD0346012BFAD147
:10476C0000BFFFF72BFD0346012BFAD100BF00BFA2
:10477C0080BD000080B582B000AF0023FB71FFF755
:10478C0075F903461A46FB791344FB71FCF7FAFBE7
:10479C00FDF7B8F8FCF75CFD0648FDF727FB034670
:1047AC001A46FB791344FB71FB7918460837BD4652
:1047BC0080BD00BFE001002480B582B000AF0023B3
:1047CC00FB71FFF771F903461A46FB791344FB7131
:1047DC000648FDF7A3FB03461A46FB791344FB710D
:1047EC00FB7918460837BD4680BD00BFE0010024A8
:1047FC0080B582B000AF0023FB710B48FDF72AFC9B
:10480C0003461A46FB791344FB71FB79002B03D149
:10481C00064B01221A7002E0044B00221A70FB793D
:10482C0018460837BD4680BDE0010024BC44002476
:10483C0080B483B000AF78607B681B6803F0100312
:10484C00102B01D1012300E0002318460C37BD4684
:10485C005DF8047B704780B483B000AF78607B68F0
:10486C001B6803F02003202B01D1012300E000235F
:10487C0018460C37BD465DF8047B704780B483B096
:10488C0000AF78607B681B6803F00803082B01D12C
:10489C00012300E0002318460C37BD465DF8047B6D
:1048AC00704780B483B000AF78607B6810229A6048
:1048BC0000BF0C37BD465DF8047B704780B483B0F5
:1048CC0000AF78607B6820229A6000BF0C37BD4631
:1048DC005DF8047B704780B483B000AF78607B6870
:1048EC0008229A6000BF0C37BD465DF8047B704708
:1048FC0080B483B000AF78607B68DB6903F002039F
:10490C00022B01D1012300E0002318460C37BD46D1
:10491C005DF8047B704780B483B000AF78607B682F
:10492C00DB6903F00403042B01D1012300E0002315
:10493C0018460C37BD465DF8047B704780B483B0D5
:10494C0000AF78607B68DB6903F00803082B01D1AA
:10495C00012300E0002318460C37BD465DF8047BAC
:10496C00704780B483B000AF78607B68DB6903F07C
:10497C001003102B01D1012300E0002318460C3743
:10498C00BD465DF8047B704780B483B000AF78609F
:10499C007B6802221A6200BF0C37BD465DF8047BAF
:1049AC00704780B483B000AF78607B6804221A62D1
:1049BC0000BF0C37BD465DF8047B704780B483B0F4
:1049CC0000AF78607B6808221A6200BF0C37BD46C6
:1049DC005DF8047B704780B483B000AF78607B686F
:1049EC0010221A6200BF0C37BD465DF8047B70477D
:1049FC0080B400AF00BFFDE780B400AF00BFFDE79F
:104A0C0080B400AF00BFFDE780B400AF00BFFDE78E
:104A1C0080B400AF00BFFDE780B400AF00BFBD465F
:104A2C005DF8047B704780B400AF00BFBD465DF8F5
:104A3C00047B704780B400AF00BFBD465DF8047BBB
:104A4C00704780B400AF00BFBD465DF8047B704773
:104A5C0080B500AF1048FFF7EBFE0346002B04D0E7
:104A6C000D48FFF71EFFFCF709FC0B48FFF7F3FEA0
:104A7C000346002B04D00848FFF720FFFCF7FEFB91
:104A8C000548FFF7FBFE0346002B02D00248FFF758
:104A9C0022FF00BF80BD00BF0000024080B500AF08
:104AAC000A48FFF7D8FE0346002B04D00748FFF74F
:104ABC0005FFFCF7A9FC0548FFF7E0FE0346002BB9
:104ACC0002D00248FFF707FF00BF80BD0004024080
:104ADC0080B500AF1348FFF744FF0346002B04D00A
:104AEC001048FFF778FFFCF7C9FB0E48FFF726FFCD
:104AFC000346002B02D00B48FFF760FF0948FFF775
:104B0C00F7FE0346002B02D00648FFF73DFF054891
:104B1C00FFF701FF0346002B02D00248FFF741FFCD
:104B2C0000BF80BD0048004080B400AF324BD3F8CA
:104B3C008830314A43F47003C2F888302F4B1B681D
:104B4C0003F00F03062B07D82C4B1B6823F00F0325
:104B5C002A4A43F007031360294B1B68284A43F089
:104B6C0001031360264B00221A61254B1A68244955
:104B7C00244B13400B60214B1B6803F00803002BE4
:104B8C0007D01E4B1B6823F00F031C4A43F007038E
:104B9C0013601B4B00229A61194B0022DA61184BEF
:104BAC0000221A62164B184A9A62154B174ADA629F
:104BBC00134B174A1A63124B00225A63104B144AB8
:104BCC009A630F4B0022DA630D4B114A1A640C4B9B
:104BDC0000225A640A4B1B68094A23F48023136091
:104BEC00074B00221A660B4B43F2D2021A6000BF2D
:104BFC00BD465DF8047B704700ED00E000200052DC
:104C0C00004402587FEDF6EA000202020000FF01A8
:104C1C00800201010040005280B485B000AFF86002
:104C2C00B9607A60FB681968BB6803FB03F2134632
:104C3C005B001344DB4301EA0302BB6803FB03F391
:104C4C00796801FB03F31A43FB681A6000BF143741
:104C5C00BD465DF8047B704780B485B000AFF8604A
:104C6C00B9607A60FB685A68BB68DB431A40BB6862
:104C7C00796801FB03F31A43FB685A6000BF1437D1
:104C8C00BD465DF8047B704780B485B000AFF8601A
:104C9C00B9607A60FB689968BB6803FB03F2134642
:104CAC005B001344DB4301EA0302BB6803FB03F321
:104CBC00796801FB03F31A43FB689A6000BF143751
:104CCC00BD465DF8047B704780B485B000AFF860DA
:104CDC00B9607A60FB68D968BB6803FB03F21346C2
:104CEC005B001344DB4301EA0302BB6803FB03F3E1
:104CFC00796801FB03F31A43FB68DA6000BF1437D1
:104D0C00BD465DF8047B704780B485B000AFF86099
:104D1C00B9607A60FB68196ABB6803FB03F3BA6875
:104D2C0002FB03F3BA6803FB02F213461B019B1A46
:104D3C00DB4301EA0302BB6803FB03F3B96801FB25
:104D4C0003F3B96801FB03F3796801FB03F31A431E
:104D5C00FB681A6200BF1437BD465DF8047B7047D0
:104D6C0080B485B000AFF860B9607A60FB68596AAE
:104D7C00BB681B0ABA68120A02FB03F3BA68120A70
:104D8C0002FB03F3BA68120A03FB02F213461B017F
:104D9C009B1ADB4301EA0302BB681B0AB968090AC8
:104DAC0001FB03F3B968090A01FB03F3B968090AAB
:104DBC0001FB03F3796801FB03F31A43FB685A62A6
:104DCC0000BF1437BD465DF8047B704780B588B0D2
:104DDC0000AF786039603B681B683B613B6993FAB4
:104DEC00A3F3FB60FB687B617B69002B01D1202363
:104DFC0003E07B69B3FA83F3DBB2FB6148E03B6809
:104E0C001A680121FB6901FA03F31340BB61BB690A
:104E1C00002B3AD03B685B68012B03D03B685B6886
:104E2C00022B0ED13B689B681A46B9697868FFF76C
:104E3C002BFF3B6819683B68DB681A467868FFF7FC
:104E4C000BFF3B681B691A46B9697868FFF73CFF92
:104E5C003B685B68022B11D1BB69FF2B07D83B6801
:104E6C005B691A46B9697868FFF74EFF06E03B6844
:104E7C005B691A46B9697868FFF772FF3B685B6833
:104E8C001A46B9697868FFF7C7FEFB690133FB6105
:104E9C003B681A68FB6922FA03F3002BAFD100239D
:104EAC0018462037BD4680BD80B483B000AF786013
:104EBC007B681B6843F001027B681A6000BF0C37EB
:104ECC00BD465DF8047B704780B483B000AF78605A
:104EDC007B681B6823F001027B681A6000BF0C37EB
:104EEC00BD465DF8047B704780B485B000AFF860B8
:104EFC00B9607A60FB681B6823F4F8527B6819026E
:104F0C00BB680B431A43FB681A6000BF1437BD46DD
:104F1C005DF8047B7047000080B485B000AFF8608A
:104F2C00B9607A60FB689A68064B1340B9687A6876
:104F3C000A431A43FB689A6000BF1437BD465DF8FC
:104F4C00047B704700F8FFFF80B483B000AF78603B
:104F5C007B689B6843F400427B689A6000BF0C3707
:104F6C00BD465DF8047B704780B483B000AF7860B9
:104F7C007B689B6823F400427B689A6000BF0C3707
:104F8C00BD465DF8047B704780B483B000AF786099
:104F9C0039607B683A681A6100BF0C37BD465DF812
:104FAC00047B704780B483B000AF786039607B6855
:104FBC001B6823F440123B681A437B681A6000BFDD
:104FCC000C37BD465DF8047B704780B483B000AFEE
:104FDC00786039607B685B6823F400423B681A4355
:104FEC007B685A6000BF0C37BD465DF8047B704788
:104FFC0080B582B000AF786039607868FFF764FFE5
:10500C003B6899683B68DB681A467868FFF76CFF69
:10501C003B685B6819467868FFF7B6FF7868FFF75E
:10502C0043FF7868FFF7A0FF3B6819693B689B69F1
:10503C001A467868FFF770FF3B681B69002B02D09B
:10504C007868FFF781FF3B681B6819467868FFF7A3
:10505C00A9FF3B685B6919467868FFF7B6FF002328
:10506C0018460837BD4680BD80B483B000AF786069
:10507C007B681B6803F00103012B01D1012300E0C5
:10508C00002318460C37BD465DF8047B704780B48E
:10509C0083B000AF786039607B681B6823F4805262
:1050AC003B681A437B681A6000BF0C37BD465DF83D
:1050BC00047B704780B483B000AF78607B68DB689A
:1050CC0003F0805318460C37BD465DF8047B7047DF
:1050DC0080B483B000AF786039607B683A681A643A
:1050EC0000BF0C37BD465DF8047B704780B586B0B9
:1050FC0000AF786039600123FB757868FFF7B4FF67
:10510C000346002B67D17B689A68354B13403A688D
:10511C0091693A68126A11433A6892680A431A43D1
:10512C007B689A603B685B693B613B685B68FB60D2
:10513C007868FFF7BFFFB8603B69B3F1806F12D19D
:10514C00BB68002B03D1FB68B3F5800F06D0BB689E
:10515C00B3F1805F07D1FB68002B04D14FF4805171
:10516C007868FFF794FF7B68DA681E4B13403A6847
:10517C0051693A68D26811433A68126911433A6826
:10518C00D26911433A68526811433A68126802F4C2
:10519C00C0220A431A437B68DA607B681B6823F4DD
:1051AC0000623B681B6803F400631A437B681A6057
:1051BC003B681B6AB3F5800F05D13B685B6A1946E7
:1051CC007868FFF785FF7B681B6D23F001027B6815
:1051DC001A650023FB75FB7D18461837BD4680BD4C
:1051EC00E0FFBF8FFFFF39D880B483B000AF786089
:1051FC0039607A683B68B2FBF3F3074A013B5360B2
:10520C00054B00229A60044B05221A6000BF0C3734
:10521C00BD465DF8047B704710E000E080B582B0BD
:10522C0000AF78604FF47A717868FFF7DDFF00BF4C
:10523C000837BD4680BD000080B483B000AF7860F5
:10524C00044A7B68136000BF0C37BD465DF8047BD5
:10525C00704700BFCC020024DFF834D0FFF764FCA9
:10526C000C480D490D4A002302E0D458C4500433B5
:10527C00C4188C42F9D30A4A0A4C002301E013608B
:10528C000432A242FBD300F011F8FFF725F9704766
:10529C000000052400000024D002002494550008CE
:1052AC00D0020024C0440024FEE7000070B50D4D70
:1052BC000D4C641BA4100026A64209D10B4D0C4CBE
:1052CC0000F026F8641BA4100026A64205D170BD80
:1052DC0055F8043B98470136EEE755F8043B9847E0
:1052EC000136F2E78C5500088C5500088C550008E7
:1052FC00905500080A44914200F1FF3300D17047E9
:10530C0010B511F8014B03F8014F9142F9D110BDC2
:10531C00F8B500BFF8BC08BC9E467047F8B500BF96
:08532C00F8BC08BC9E46704766
:10533400102840587088A0B8010000000200000046
:105344000400000006000000080000000A0000003D
:105354000C000000100000002000000040000000CD
:1053640080000000000100000001000000010000B6
:1053740000010000000100004C56530052310000AF
:10538400504153534641494C0000211042206330A0
:105394008440A550C660E770088129914AA16BB189
:1053A4008CC1ADD1CEE1EFF1311210027332522231
:1053B400B5529442F772D662399318837BB35AA3D9
:1053C400BDD39CC3FFF3DEE3622443342004011401
:1053D400E664C774A44485546AA54BB52885099529
:1053E400EEE5CFF5ACC58DD55336722611163006D1
:1053F400D776F6669556B4465BB77AA71997388779
:10540400DFF7FEE79DD7BCC7C448E5588668A77890
:105414004008611802282338CCC9EDD98EE9AFF9C8
:10542400488969990AA92BB9F55AD44AB77A966A70
:10543400711A500A333A122AFDDBDCCBBFFB9EEB18
:10544400799B588B3BBB1AABA66C877CE44CC55C40
:10545400222C033C600C411CAEED8FFDECCDCDDD68
:105464002AAD0BBD688D499D977EB66ED55EF44E10
:10547400133E322E511E700E9FFFBEEFDDDFFCCFB8
:105484001BBF3AAF599F788F8891A981CAB1EBA10C
:105494000CD12DC14EF16FE18010A100C230E32088
:1054A4000450254046706760B9839893FBA3DAB330
:1054B4003DC31CD37FE35EF3B1029012F322D232D8
:1054C4003542145277625672EAB5CBA5A895898500
:1054D4006EF54FE52CD50DC5E234C324A014810428
:1054E4006674476424540544DBA7FAB79987B897D0
:1054F4005FE77EF71DC73CD7D326F2369106B01678
:1055040057667676154634564CD96DC90EF92FE98F
:10551400C899E9898AB9ABA94458654806782768C7
:10552400C018E1088238A3287DCB5CDB3FEB1EFB6F
:10553400F98BD89BBBAB9ABB754A545A376A167A17
:10554400F10AD01AB32A923A2EFD0FED6CDD4DCD3F
:10555400AABD8BADE89DC98D267C076C645C454C67
:10556400A23C832CE01CC10C1FEF3EFF5DCF7CDF0F
:105574009BAFBABFD98FF89F176E367E554E745EB7
:08558400932EB23ED10EF01E81
:04558C00F102000820
:04559000CD02000840
:105594002000000000140258004000000100000038
:1055A4000300000000000000200000000014025866
:1055B4000080000001000000030000000000000063
:1055C400000000000200000000040258C0000000B7
:1055D400040000000200000000040258C0000000A3
:1055E400040000000000000000002000080C01037B
:1055F40000000000005400404B1840200000000050
:105604000000000000000000000000000000000096
:105614000400000000080258001C000006000000FE
:105624000400000000080258001C000006000000EE
:105634000400000000080258001C000006000000DE
:105644000000000000800000040C0207003C004041
:10565400000000000F000000000000020000000134
:10566400000000700000000008000000000C025858
:105674000100000001000000030000000000000021
:1056840008000000000C02580200000001000000A5
:1056940003000000000000000000000008000000FB
:1056A400000C025800300000040000000800000054
:1056B400000C025800300000040000000300000049
:1056C400800000000C08010300000000001C0058CA
:1056D4004B18402000000000000000000000000003
:1056E400000000000000000001000000000002585B
:1056F400E000000005000000010000000000025866
:10570400E000000005000000010000000000025855
:10571400E00000000500000001000000001000008F
:10572400040C020700300140000000000F000000DC
:1057340000000002000000010000007000000000F2
:1057440004000000000802581000000001000000DE
:1057540003000000000000000400000000080258DC
:105764002000000001000000030000000000000011
:10577400300000247C000024D8000024F000002421
:105784000801002454010024B0010024C8010024AD
:105794000000000008000000000C02580003000094
:1057A40007000000000000000000000000000000EE
:1057B40000000000000000000000040008000207D0
:1057C400000000000048004000C201000C0000007E
:1057D400000000002700000002000000020000009A
:1057E400000402402E000000000000004000000001
:1057F40000000000000000000000000000000000A5
:1058040000480040000000000100000000000240C9
:105814002D00000000000000000000000001000056
:1058240000000100000000000000000000480040EB
:105834000100000002000000000402580080000083
:10584400010000000300000000000000000200242A
:105854004C02002478020024A40200240090D00307
:040000050800526538
:00000001FF
