:020000040800F2
:1000000000000524E9690008D94E0008E14E000807
:10001000E94E0008F14E0008F94E0008000000000B
:10002000000000000000000000000000014F000878
:100030000F4F0008000000001D4F00082B4F000864
:10004000396A0008396A0008396A0008396A000804
:10005000396A0008396A0008396A0008396A0008F4
:10006000396A0008396A0008396A0008396A0008E4
:10007000396A0008396A0008396A0008396A0008D4
:10008000396A0008396A0008396A0008396A0008C4
:10009000396A0008396A0008396A0008396A0008B4
:1000A000396A0008396A0008396A0008396A0008A4
:1000B000396A0008396A0008396A0008396A000894
:1000C000396A0008396A0008396A0008396A000884
:1000D000396A0008396A0008396A0008396A000874
:1000E000396A0008396A000800000000396A00080F
:1000F000396A0008396A0008396A0008396A000854
:10010000396A0008396A0008396A0008396A000843
:10011000396A0008396A0008396A0008396A000833
:10012000396A0008396A0008396A0008396A000823
:10013000396A0008396A0008396A0008396A000813
:1001400000000000000000000000000000000000AF
:10015000396A0008396A0008396A0008396A0008F3
:10016000396A0008396A0008396A0008396A0008E3
:10017000396A0008396A0008396A0008396A0008D3
:10018000396A0008396A0008396A0008396A0008C3
:10019000396A0008396A0008396A0008396A0008B3
:1001A000396A0008396A0008396A0008000000004E
:1001B000396A0008396A0008396A0008396A000893
:1001C000396A0008396A00080000000000000000D9
:1001D0000000000000000000396A00080000000074
:1001E000000000000000000000000000000000000F
:1001F0000000000000000000396A0008396A0008A9
:10020000396A0008396A000800000000396A0008ED
:10021000396A0008396A0008396A0008396A000832
:10022000396A000800000000396A00080000000078
:10023000396A0008396A000800000000396A0008BD
:10024000396A0008396A0008396A0008396A000802
:10025000396A0008396A0008396A0008396A0008F2
:10026000396A0008396A0008396A0008396A0008E2
:10027000396A0008396A0008396A0008000000007D
:10028000396A0008396A0008396A0008396A0008C2
:1002900000000000396A0008396A0008396A00085D
:1002A000396A0008396A0008396A0008396A0008A2
:1002B000396A0008396A0008396A0008396A000892
:0C02C000396A0008396A0008396A000831
:1002D00010B5054C237833B9044B13B10448AFF380
:1002E00000800123237010BD2403002400000000BF
:1002F0000875000808B5034B1BB103490348AFF369
:10030000008008BD000000002803002408750008D4
:1003100010F8012B11F8013B012A28BF9A42F7D0AF
:10032000D01A7047034613F8012B002AFBD1181A84
:1003300001387047000000000000000000000000CD
:1003400001F0FF01102A2BDB10F0070F08D010F886
:10035000013B013A8B422DD010F0070F42B3F6D18A
:10036000F0B441EA012141EA014122F007047FF0A3
:1003700000070023F0E80256083C85EA010586EAFA
:10038000010685FA47F5A3FA87F586FA47F6A5FA36
:1003900087F68EB9EED1F0BC01F0FF0102F0070242
:1003A00032B110F8013B013A83EA010313B1F8D1ED
:1003B0000020704701387047002D06BF35460338CE
:1003C000073815F0010F07D1013015F4807F02BF07
:1003D000013015F4C03F0130F0BC0138704700BF58
:1003E00080B584B000AF78600023FB73786801F0BB
:1003F00041FC03461A46FB7B1344FB73FB7B184608
:100400001037BD4680BD80B584B000AF78600B4624
:10041000FB701346BB700023FB73FB785B00BB7360
:1004200097F903305B005BB243F001035BB27B736F
:10043000BB783B7307F10C02B97B0123786801F0AC
:10044000ABFC03461A46FB7B1344FB7307F10C021B
:10045000797B0123786801F0E7FC03461A46FB7BB1
:100460001344FB733B7BBA789A4202D0FB7B013387
:10047000FB73FB7B18461037BD4680BD80B584B04A
:1004800000AF78600B46FB700023FB7397F90330D5
:100490005B005BB243F001035BB2BB7307F10D027B
:1004A000B97B0123786801F0BFFC03461A46FB7B49
:1004B0001344FB73FB7B18461037BD4680BD00001C
:1004C00080B582B000AF0023FB712C4B00221A6074
:1004D0000023BB710BE0BB79294A52F82320274B3C
:1004E0001B681343254A1360BB790133BB71BB7989
:1004F000092BF0D9214B1B68002B08D0012002F0FA
:1005000045FE03461A46FB791344FB7107E00020C1
:1005100002F03CFE03461A46FB791344FB71174B6D
:1005200000221A600023BB710BE0BB79154A52F818
:100530002320124B1B681343104A1360BB7901330D
:10054000BB71BB79092BF0D90C4B1B68002B08D071
:10055000012002F03DFE03461A46FB791344FB716D
:1005600007E0002002F034FE03461A46FB791344EC
:10057000FB71FB7918460837BD4680BD9003002407
:10058000400300246803002480B584B000AF786085
:100590000023FB73002244217868FFF734FF0346F1
:1005A0001A46FB7B1344FB73002245217868FFF752
:1005B0002AFF03461A46FB7B1344FB7300224721A4
:1005C0007868FFF720FF03461A46FB7B1344FB7352
:1005D000FB7B18461037BD4680BD80B584B000AFA8
:1005E00078600023FB730F2244217868FFF70BFF2C
:1005F00003461A46FB7B1344FB730F2245217868A0
:10060000FFF701FF03461A46FB7B1344FB730F22DF
:1006100047217868FFF7F7FE03461A46FB7B134431
:10062000FB73FB7B18461037BD4680BD80B58AB092
:1006300000AFF860B9607A60FB70002387F827305C
:10064000FB78092B16DC082B10DA032B02DC002BBD
:1006500004DA0FE0043B032B0CD803E0442387F8B3
:1006600026300DE0452387F8263009E0472387F838
:10067000263005E097F82730013387F8273000BF90
:1006800097F82730002B65D17B6B1B0C9BB23B622C
:100690007B6B9BB2FB61F868FFF776FF03461A4657
:1006A00097F82730134487F82730FB7803F00303CB
:1006B000112202FA03F3FB76FA7E97F826301946E8
:1006C000F868FFF7A0FE03461A4697F82730134450
:1006D00087F82730B86801F042F903461A4697F8C0
:1006E0002730134487F8273007F114033A6A194674
:1006F000786802F045FC03461A4697F82730134401
:1007000087F8273007F11003FA691946786802F074
:1007100037FC03461A4697F82730134487F82730EA
:10072000B86801F02DF903461A4697F827301344AC
:1007300087F82730F868FFF750FF03461A4697F806
:100740002730134487F827307B691A043B691A4322
:100750003B6B1A6097F8273018462837BD4680BD96
:1007600080B584B000AF78600B467B8013467B7009
:100770000023FB737B78022B0ED0022B10DC002BA6
:1007800002D0012B04D00BE0494B00221A600BE091
:10079000474B01221A6007E0454B02221A6003E032
:1007A000FB7B0133FB7300BFFB7B002B77D17B8886
:1007B000184602F0F3F80346BB737B88184602F034
:1007C00009F903467B737B88184602F019F9034642
:1007D0003B733B7B5B00032202FA03F3354A136051
:1007E000334B1B6803F00303314A1360304B1A6824
:1007F0003B7B5B0002FA03F32D4A1360BB7B002BAB
:1008000012D07B7B03F00103DBB2002B06D0284B18
:100810001B6823F07043264A136005E0244B1B68D5
:1008200023F07063224A1360BB7B002B1BD07B7BC1
:10083000214A52F82330214A13601E4B1B68DA43C9
:100840001E4B1B6813401D4A13601C4B1A68184B43
:100850001B681343164A13607B7B154A12681649BE
:1008600041F823201EE07B7B154A52F82330134ABF
:100870001360104B1B68DA43104B1B6813400F4A80
:1008800013600E4B1A680A4B1B681343084A136027
:100890007B7B074A12680A4941F8232002E0FB7B70
:1008A0000133FB73FB7B18461037BD4680BD00BF8C
:1008B0009403002498030024680300249003002478
:1008C0004003002480B586B000AFF8600B467A6024
:1008D0007B810023FB757B89184602F05FF8034695
:1008E000BB757B89184602F075F803467B757B89DA
:1008F000184602F085F803463B75BB7D002B06D0F9
:100900007B7D1D4A52F823301C4A136005E07B7D35
:100910001B4A52F82330194A1360184B1A683B7D62
:100920005B0022FA03F3154A1360144B1B6803F0B3
:100930000303124A1360114B1B68022B0ED0022BCB
:1009400010D8002B02D0012B04D00BE07B680022D2
:100950001A700BE07B6801221A7007E07B680222A4
:100960001A7003E0FB7D0133FB7500BFFB7D184669
:100970001837BD4680BD00BF6803002494030024DF
:100980004003002480B584B000AF78600023FB737F
:100990007B681B681846FFF723FD03461A46FB7B5E
:1009A0001344FB737B681B691846FFF719FD034668
:1009B0001A46FB7B1344FB737B68DB68184600F028
:1009C000AAFF03461A46FB7B1344FB737B689B68B4
:1009D000184600F0A0FF03461A46FB7B1344FB7346
:1009E0007B68DB69184600F096FF03461A46FB7BDE
:1009F0001344FB737B689B69184600F08CFF034629
:100A00001A46FB7B1344FB737B68DB68184600F0D7
:100A1000B7FF03461A46FB7B1344FB737B689B6856
:100A2000184600F0ADFF03461A46FB7B1344FB73E8
:100A30007B68DB69184600F0A3FF03461A46FB7B80
:100A40001344FB737B689B69184600F099FF0346CB
:100A50001A46FB7B1344FB737B685B68184602F005
:100A6000C3F903461A46FB7B1344FB737B685B693F
:100A7000184602F0B9F903461A46FB7B1344FB7390
:100A80007B681B681846FFF7A8FD03461A46FB7BE8
:100A90001344FB737B681B691846FFF79EFD0346F2
:100AA0001A46FB7B1344FB73FB7B18461037BD468D
:100AB00080BD000080B586B000AF78600023FB7376
:100AC0007B681B681846FFF788FD03461A46FB7BC8
:100AD0001344FB737B681B691846FFF77EFD0346D2
:100AE0001A46FB7B1344FB737B689B68184600F037
:100AF00036FF03461A46FB7B1344FB737B689B69F6
:100B0000184600F02CFF03461A46FB7B1344FB7388
:100B10007B68DB68184600F022FF03461A46FB7B21
:100B20001344FB737B68DB69184600F018FF03462B
:100B30001A46FB7B1344FB7300233B6103E000BFB9
:100B40003B6901333B613B69B3F5007FF7D37B68B9
:100B50009B68184600F014FF03461A46FB7B1344BB
:100B6000FB737B689B69184600F00AFF03461A4630
:100B7000FB7B1344FB737B68DB68184600F000FFC7
:100B800003461A46FB7B1344FB737B68DB691846FC
:100B900000F0F6FE03461A46FB7B1344FB73FB7B17
:100BA000002B12D10023FB750CE0FB7D0D4A0021C8
:100BB00042F82310FB7D0C4A002142F82310FB7DF4
:100BC0000133FB75FB7D092BEFD9FFF779FC034659
:100BD0001A46FB7B1344FB73FB7B18461837BD4654
:100BE00080BD00BF400300246803002490B587B097
:100BF00002AF78600023FB737B681B6844211846B2
:100C0000FFF73CFC03461A46FB7B1344FB737B68EF
:100C10001B6845211846FFF731FC03461A46FB7B4B
:100C20001344FB737B681B6847211846FFF726FCBB
:100C300003461A46FB7B1344FB737B681B69442104
:100C40001846FFF71BFC03461A46FB7B1344FB7355
:100C50007B681B6945211846FFF710FC03461A46BE
:100C6000FB7B1344FB737B681B6947211846FFF726
:100C700005FC03461A46FB7B1344FB730023BB733E
:100C800014E07B6818687B6899687B685A68BB7B4E
:100C9000554C0194554C0094FFF7C8FC03461A4686
:100CA000FB7B1344FB73BB7B0133BB73BB7B092B07
:100CB000E7D90023BB7336E07B6818687B689968C6
:100CC0007B685A68BB7B4A4C0194484C0094FFF700
:100CD000ADFC03461A46FB7B1344FB73434B1B6876
:100CE000414A934202D0FB7B0133FB737B68186857
:100CF0007B6899687B685A68BB7B002401943B4CF5
:100D00000094FFF793FC03461A46FB7B1344FB73E6
:100D1000364B1B68364A934202D0FB7B0133FB7390
:100D2000BB7B0133BB73BB7B092BC5D90023BB73D2
:100D300014E07B6818697B6899697B685A69BB7B9A
:100D4000294C0194294C0094FFF770FC03461A4685
:100D5000FB7B1344FB73BB7B0133BB73BB7B092B56
:100D6000E7D90023BB7336E07B6818697B68996913
:100D70007B685A69BB7B1E4C01941C4C0094FFF7A6
:100D800055FC03461A46FB7B1344FB73174B1B6849
:100D9000154A934202D0FB7B0133FB737B681869D1
:100DA0007B6899697B685A69BB7B002401940F4C6E
:100DB0000094FFF73BFC03461A46FB7B1344FB738E
:100DC0000A4B1B680A4A934202D0FB7B0133FB7338
:100DD000BB7B0133BB73BB7B092BC5D9FB7B18469F
:100DE0001437BD4690BD00BF55AA55AA94030024F0
:100DF000AA55AA5590B587B002AF78600B467B80A4
:100E000013467B700023FB737B88B3F5967F17D264
:100E10007A787B8819467868FFF7A2FC03461A4661
:100E2000FB7B1344FB737B88184601F0B7FD034638
:100E3000BB737B88184601F0CDFD03467B7302E04F
:100E4000FB7B0133FB73FB7B002B72D1BB7B002B45
:100E500037D07B6818697B6899697B685A697B7BA6
:100E60003B4C54F823307C7B01933A4B0093234650
:100E7000FFF7DCFB03461A46FB7B1344FB737B68DE
:100E800018697B6899697B685A697B7B304C54F898
:100E900023307C7B01932F4B00932346FFF7C6FB47
:100EA00003461A46FB7B1344FB737B7B284A52F8AC
:100EB0002320284B1B689A423ED0FB7B0133FB73F7
:100EC0003AE07B6818687B6899687B685A687B7B26
:100ED000214C54F823307C7B01931E4B0093234616
:100EE000FFF7A4FB03461A46FB7B1344FB737B68A6
:100EF00018687B6899687B685A687B7B164C54F845
:100F000023307C7B0193134B00932346FFF78EFB2A
:100F100003461A46FB7B1344FB737B7B0E4A52F855
:100F200023200C4B1B689A4206D0FB7B0133FB73DA
:100F300002E0FB7B0133FB73FFF7C2FA03461A465C
:100F4000FB7B1344FB73FB7B18461437BD4690BDF7
:100F500068030024900300244003002480B586B079
:100F600000AFF8600B467A607B810023FB757B89BC
:100F7000B3F5967F0BD27B897A681946F868FFF73C
:100F8000A1FC03461A46FB7D1344FB7502E0FB7D82
:100F90000133FB75FB7D18461837BD4680BD000048
:100FA00090B587B002AF786039600023FB730023EF
:100FB000BB8110E0BB893A6813441A78BB89194693
:100FC0007868FFF7CDFB03461A46FB7B1344FB739F
:100FD000BB890133BB81BB89B3F5967FEAD3FB7B29
:100FE000002B76D10023FB7270E07B6818687B6869
:100FF00099687B685A68FB7A3C4C54F82330FC7A39
:1010000001933B4B00932346FFF710FB03461A4620
:10101000FB7B1344FB737B6818687B6899687B686B
:101020005A68FB7A314C54F82330FC7A0193304BE8
:1010300000932346FFF7FAFA03461A46FB7B134454
:10104000FB73FB7A294A52F82320294B1B689A42EA
:1010500002D0FB7B0133FB737B6818697B6899695D
:101060007B685A69FB7A234C54F82330FC7A01934D
:101070001F4B00932346FFF7D9FA03461A46FB7B22
:101080001344FB737B6818697B6899697B685A69AC
:10109000FB7A184C54F82330FC7A0193144B0093DC
:1010A0002346FFF7C3FA03461A46FB7B1344FB7340
:1010B000FB7A104A52F823200D4B1B689A4202D04B
:1010C000FB7B0133FB73FB7A0133FB72FB7A092B49
:1010D0008BD9FFF7F5F903461A46FB7B1344FB73E4
:1010E000FB7B18461437BD4690BD00BF400300246B
:1010F000900300246803002480B584B000AF7860BA
:1011000039600023FB730023BB810FE0BB893A6881
:101110001A44BB8919467868FFF7D4FB03461A4680
:10112000FB7B1344FB73BB890133BB81BB89B3F5E4
:10113000967FEBD3FB7B18461037BD4680BD000081
:10114000B0B586B002AF78600B46FB700023FB732E
:101150000023BB810DE0FA78BB8919467868FFF758
:10116000FFFA03461A46FB7B1344FB73BB8901332A
:10117000BB81BB89B3F5967FEDD3FB7B002B7AD186
:1011800000237B8174E07B6818687B6899687B68C2
:101190005A687B89DCB27B893D4D55F82330019339
:1011A0003C4B00932346FFF741FA03461A46FB7B6C
:1011B0001344FB737B6818687B6899687B685A687E
:1011C0007B89DCB27B89324D55F823300193314B5A
:1011D00000932346FFF72AFA03461A46FB7B134483
:1011E000FB737B892A4A52F823202A4B1B689A42B8
:1011F00002D0FB7B0133FB737B6818697B689969BC
:101200007B685A697B89DCB27B89234D55F8233092
:101210000193204B00932346FFF708FA03461A4632
:10122000FB7B1344FB737B6818697B6899697B6857
:101230005A697B89DCB27B89174D55F823300193BD
:10124000144B00932346FFF7F1F903461A46FB7B44
:101250001344FB737B89104A52F823200D4B1B6803
:101260009A4202D0FB7B0133FB737B8901337B8184
:101270007B89092B87D9FFF723F903461A46FB7BA5
:101280001344FB73FB7B18461037BD46B0BD00BF4F
:1012900040030024900300246803002480B586B036
:1012A00000AFF8600B467A60FB7200237B757B68A9
:1012B00000221A600023FB8212E007F11402FB8A6D
:1012C0001946F868FFF74AFE3B7DFA7A9A4204D144
:1012D0007B681B685A1C7B681A60FB8A0133FB829F
:1012E000FB8AB3F5967FE8D37B7D18461837BD4659
:1012F00080BD000080B582B000AF0023FB71344B8D
:101300001B68344A0021D154314B1B68002B1CD080
:10131000314B1B78DBB21A46304B1B78DBB21344DF
:10132000002B12D12B492E4805F09CFC284B1B6842
:101330002C4A13602A4B1B783A2B03D1274B0122EE
:101340001A7002E0244B01221A70274B1B78DBB283
:10135000002B26D000BF254B5B68184602F082FBAD
:101360000346002BF7D01A4B1B685A1C18490A6019
:10137000184A0D21D154164B1B685A1C14490A6097
:10138000144A0A21D154194B5B68114A1268114959
:10139000184602F082FB03461A46FB791344FB71A0
:1013A00005E0124B1B681249184602F0EBFA084B95
:1013B00000221A600C4B00221A700C4B1B683E2155
:1013C000184602F0BBFAFB7918460837BD4680BDC7
:1013D0009C030024A4030024D8780024D978002496
:1013E000C4510024D4780024DA780024BC020024FC
:1013F0002075000880B582B000AF0346FB71FB7911
:101400007A2B00F30881612B80F297803F2B79DCE7
:10141000082BC0F20081083B372B00F2FC8001A2B0
:1014200052F823F08D15000817160008E91500087A
:1014300017160008171600080116000817160008EE
:1014400017160008171600081716000817160008C8
:1014500017160008171600081716000817160008B8
:1014600017160008171600081716000817160008A8
:101470001716000817160008171600081716000898
:101480001716000817160008171600081716000888
:101490001716000817160008171600081716000878
:1014A0001716000817160008171600081716000868
:1014B0001716000817160008171600081716000858
:1014C00017160008431500084315000843150008C7
:1014D000431500084315000843150008431500088C
:1014E0004315000843150008431500080F150008B0
:1014F0001716000817160008171600081716000818
:1015000043150008413B192B00F2858019E0474B39
:101510001B78DBB2002B02D0444B00221A70444BE4
:1015200001221A70434B1B684349FA79CA54414B54
:101530001B6801333F4A136072E0FB7923F02003FC
:10154000FB713A4B1B78DBB2002B02D0374B0022E9
:101550001A70384B1B6842F20E7293425DD8354BBD
:101560001B683549FA79CA54324B1B680133314A3A
:1015700013602F4B1B78DBB2002B4ED12F4B1B6817
:10158000FA791146184602F0D9F946E0274B1B7844
:10159000DBB2002B02D0254B00221A70254B1B68B2
:1015A000002B3CD0234B1B68013B224A1360214B8C
:1015B0001B68214A0021D1541D4B1B78DBB2002B44
:1015C0002DD11E4B1B680821184602F0B7F91B4BA2
:1015D0001B682021184602F0B1F9184B1B6808213E
:1015E000184602F0ABF91AE0104B1B78DBB2002B67
:1015F00003D00E4B00221A7012E0FFF77BFE0FE0C3
:101600000A4B1B78DBB2002B02D1084B01221A7067
:10161000FFF770FE04E000BF02E000BF00E000BF83
:10162000002318460837BD4680BD00BFA003002434
:10163000DA7800249C030024A4030024BC020024C4
:1016400080B584B000AF0023FB712D4B1B6818469A
:1016500002F03AF803461A46FB791344FB71284B13
:10166000DB68184600F057F903461A46FB79134425
:10167000FB71234BDB68184600F071F903461A46EC
:10168000FB791344FB710023FB6003E000BFFB68A0
:101690000133FB60FB68B3F5007FF7D3184BDB68C1
:1016A000184600F06DF903461A46FB791344FB71A6
:1016B0000023BB6003E000BFBB680133BB60BB68B5
:1016C000104A9342F7D3104B00221A600C4B9B68D0
:1016D000184602F097F803461A46FB791344FB714B
:1016E000074B5B68184602F0E1F803461A46FB799F
:1016F0001344FB71FB7918461037BD4680BD00BF0F
:10170000BC02002400A086019C03002480B582B0A6
:1017100000AF0023FB710A4B00221A60094B1B68C3
:101720000949184602F02EF9064B1B683E2118465F
:1017300002F004F9FB7918460837BD4680BD00BFAA
:101740009C030024BC0200242075000880B584B0EE
:1017500000AF78600023FB7300BF194B5B6818462D
:1017600002F080F90346002BF7D07968154805F0A0
:1017700079FA1448FEF7D6FDB860BB685A1CBA6007
:10178000104A0D21D154BB685A1CBA600D4A0A2177
:10179000D154BB685A1CBA600A4A3E21D154084B46
:1017A0005B68BA680749184602F077F903461A469B
:1017B000FB7B1344FB73FB7B18461037BD4680BD93
:1017C000BC020024B42A002480B584B000AF786045
:1017D0000023FB7300BF164B5B68184602F042F90A
:1017E0000346002BF7D07968124805F03BFA114800
:1017F000FEF798FDB860BB685A1CBA600D4A0D210F
:10180000D154BB685A1CBA600A4A0A21D154084B09
:101810005B68BA680749184602F03FF903461A4662
:10182000FB7B1344FB73FB7B18461037BD4680BD22
:10183000BC020024B42A002480B582B000AF00238B
:10184000FB71154B1B78DBB2002B04D1134B1B78BB
:10185000DBB2002B11D0FB790133FB7117E0BB79B0
:101860001846FFF7C7FD0C4B1B78DBB2002B0ED1DF
:101870000A4B1B78DBB2002B09D1094B9B68BA1DC0
:101880001146184602F0AEF80346002BE7D0FB796C
:1018900018460837BD4680BDD8780024D978002482
:1018A000BC02002480B485B000AF78600A4BD3F846
:1018B000E02009497B681343C1F8E030064BD3F8B8
:1018C000E0207B681340FB60FB6800BF1437BD4617
:1018D0005DF8047B704700BF0044025880B483B0B9
:1018E00000AF786039607B683A689A6100BF0C3756
:1018F000BD465DF8047B704780B483B000AF78606C
:1019000039603B681A047B689A6100BF0C37BD469A
:101910005DF8047B704780B588B000AF78607B6865
:101920001B681846FFF7BEFF7B689B68BB607B683F
:10193000DB68FB607B681B693B6100237B617B6824
:101940005B69BB617B685B6807F10802114618465A
:1019500003F002FE002318462037BD4680BD80B547
:1019600082B000AF78607B685A687B689B681946D4
:101970001046FFF7C1FF002318460837BD4680BD5B
:1019800080B582B000AF78607B685A687B689B68DE
:1019900019461046FFF7A2FF002318460837BD4638
:1019A00080BD000080B485B000AF78600A4BD3F8EA
:1019B000E02009497B681343C1F8E030064BD3F8B7
:1019C000E0207B681340FB60FB6800BF1437BD4616
:1019D0005DF8047B704700BF0044025880B485B0B6
:1019E00000AF78600A4BD3F8E42009497B681343C1
:1019F000C1F8E430064BD3F8E4207B681340FB6069
:101A0000FB6800BF1437BD465DF8047B704700BF1C
:101A10000044025880B485B000AF78600A4BD3F818
:101A2000E82009497B681343C1F8E830064BD3F836
:101A3000E8207B681340FB60FB6800BF1437BD469D
:101A40005DF8047B704700BF0044025880B485B045
:101A500000AF78600A4BD3F8F02009497B68134344
:101A6000C1F8F030064BD3F8F0207B681340FB60E0
:101A7000FB6800BF1437BD465DF8047B704700BFAC
:101A80000044025880B485B000AF78600A4BD3F8A8
:101A9000F42009497B681343C1F8F430064BD3F8AE
:101AA000F4207B681340FB60FB6800BF1437BD4621
:101AB0005DF8047B704700BF0044025880B483B0D7
:101AC00000AF78607B681B6843F001027B681A6096
:101AD00000BF0C37BD465DF8047B704780B483B00F
:101AE00000AF78607B689B6903F00203022B01D191
:101AF000012300E0002318460C37BD465DF8047B47
:101B0000704780B483B000AF78607B689B6903F056
:101B10000403042B01D1012300E0002318460C37F5
:101B2000BD465DF8047B704780B483B000AF786039
:101B30007B689B6903F02003202B01D1012300E087
:101B4000002318460C37BD465DF8047B704780B40F
:101B500083B000AF78607B68DB6943F020027B686C
:101B6000DA6100BF0C37BD465DF8047B70470000AA
:101B700080B487B000AFF860B9607A603B60BB6842
:101B8000C3F309027B6803F400631A433B681B0438
:101B900003F47F031A433B6A1A437B6A134323F01F
:101BA00000437B61FB685A687B6A5B0D03F48061CC
:101BB000064B0B43DB431A407B691A43FB685A60B0
:101BC00000BF1C37BD465DF8047B7047FF7BFF03F9
:101BD00080B483B000AF78607B685B6ADBB2184684
:101BE0000C37BD465DF8047B704780B483B000AF0E
:101BF00078600B46FB70FA787B689A6200BF0C37FE
:101C0000BD465DF8047B704780B485B000AF786056
:101C10007B68DAB2104B1344FB60FB681A687B6880
:101C2000190E7B681B0A03F01F0301FA03F3DB4361
:101C30001A407B681B0CD9B27B681B0A03F01F0398
:101C400001FA03F31A43FB681A6000BF1437BD465C
:101C50005DF8047B704700BF4C44025880B582B0E9
:101C600000AF78607868FFF7CFFF00BF0837BD4648
:101C700080BD000080B590B000AF7860002387F889
:101C80003F307B685B681846FFF78CFE7B68DB683B
:101C90007B620223BB620323FB6201233B630023BD
:101CA0007B637B681B69BB637B689B6807F12402CD
:101CB0001146184603F050FC7B681B78012B12D1AB
:101CC0007B685B691846FFF76DFE7B68DB697B62AA
:101CD0007B681B6ABB637B689B6907F12402114622
:101CE000184603F039FC7B68DB6A1846FFF7B6FF3D
:101CF0007B6893F82430032B22D801A252F823F0FA
:101D0000111D00081D1D0008291D0008351D0008B3
:101D10007B689B6A1846FFF77DFE17E07B689B6A2D
:101D20001846FFF793FE11E07B689B6A1846FFF7A1
:101D300055FE0BE07B689B6A1846FFF7A3FE05E0A3
:101D400097F83F30013387F83F3000BF0023BB6076
:101D50007B689B6BFB607B68DB6B3B617B681B6C10
:101D60007B610023BB617B685B6CFB617B689B6C68
:101D70003B627B685B6B07F108021146184603F073
:101D8000FDFC7B685B6B1846FFF798FE97F83F30C9
:101D900018464037BD4680BD90B589B002AFF860A7
:101DA0007A601A460B46FB721346BB720023FB7522
:101DB000FB68586BF97AFB689A6CBB7A194C0194F2
:101DC0004FF000740094FFF7D3FE14E000BFFB68EF
:101DD0005B6B1846FFF782FE0346002BF7D0FB68CB
:101DE000586BFB7D7A6813441B781946FFF7FDFE9C
:101DF000FB7D0133FB75FA7DBB7A9A42E6D300BFC7
:101E0000FB685B6B1846FFF78FFE0346002BF7D08D
:101E1000FB685B6B1846FFF79AFE002318461C37D9
:101E2000BD4690BD0020008090B589B002AFF8603B
:101E30007A601A460B46FB721346BB720023FB7591
:101E4000FB68586BF97ABB7A1A4A01924FF000721C
:101E500000920022FFF78CFE15E000BFFB685B6B71
:101E60001846FFF74EFE0346002BF7D0FB68596B70
:101E7000FB7D7A68D4180846FFF7AAFE0346237054
:101E8000FB7D0133FB75FA7DBB7A9A42E5D300BF37
:101E9000FB685B6B1846FFF747FE0346002BF7D045
:101EA000FB685B6B1846FFF752FE002318461C3791
:101EB000BD4690BD0024008080B485B000AF78603E
:101EC0007B681B78392B04D87B681B78303BDBB2EE
:101ED00003E07B681B78373BDBB2FB737B68013325
:101EE0001B78392B05D87B6801331B78303BDBB27C
:101EF00004E07B6801331B78373BDBB2BB7397F997
:101F00000F301B015AB297F90E3013435BB2DBB2AC
:101F100018461437BD465DF8047B704780B485B021
:101F200000AF03463960FB71FB791B09FB73FB793A
:101F300003F00F03BB73FB7B092B03D8FB7B303310
:101F4000DBB202E0FB7B3733DBB23A681370BB7B5A
:101F5000092B03D8BB7B3033DBB202E0BB7B3733CA
:101F6000DBB23A680132137000BF1437BD465DF82A
:101F7000047B704780B485B000AF03460A46FB710E
:101F80001346BB71FB799BB21B02FB81BB799AB2F2
:101F9000FB891343FB81FB8918461437BD465DF866
:101FA000047B704780B485B000AF0346FB71FB79BA
:101FB000392B02DC302B03DA05E0413B052B02D83C
:101FC0000023FB7302E00123FB7300BFFB7B184679
:101FD0001437BD465DF8047B7047000080B485B0BF
:101FE00000AF78600023FB600023BB60184B1B78B8
:101FF0001A46FB681344FB60164B1B781A46FB68B5
:102000001344FB60134B5B781A46FB681344FB6078
:102010000023BB600AE0104ABB6813441B781A46D1
:10202000FB681344FB60BB680133BB600B4B1B6850
:10203000BA689A42EFD3FB68DBB25B42DAB27B68E4
:102040001A70002318461437BD465DF8047B7047AC
:10205000087A00240C7A0024107A002420A100249D
:1020600080B582B000AF0023FB70234B3A221A7078
:10207000224B1B7822491846FFF750FF214B1B7853
:1020800021491846FFF74AFF1E4B5B781F49184647
:10209000FFF744FF00237B601D4B1B68002B15D00E
:1020A0000FE01C4A7B6813441A787B685B00073397
:1020B00011490B4419461046FFF730FF7B68013386
:1020C0007B60134B1B687A689A42EAD3124B1A78EA
:1020D0007B685B00073308490B4419461046FFF73D
:1020E0001DFF7B685B000933034A0021D154FB7854
:1020F00018460837BD4680BD28A10024087A002470
:1021000029A100240C7A00242BA100242DA1002455
:1021100020A10024107A002424A1002480B582B0DC
:1021200000AF0023FB71114B5B781846FFF73AFFB5
:1021300003461A46FB791344FB710C4B9B781846F7
:10214000FFF730FF03461A46FB791344FB7108483A
:10215000FFF7B2FE0346302B02D0FB790133FB714F
:10216000FB7918460837BD4680BD00BFC451002426
:10217000C551002480B582B000AF0023FB71BB1DA8
:102180001846FFF72BFF03461A46FB791344FB71F1
:10219000064B1A78BB799A4202D0FB790133FB7166
:1021A000FB7918460837BD4680BD00BF24A1002436
:1021B00080B483B000AF0023FB710B4B1B68082B6E
:1021C00002D8FB790133FB71074B1B6803F0010355
:1021D000002B02D1FB790133FB71FB7918460C37D8
:1021E000BD465DF8047B7047D478002480B582B08A
:1021F00000AF01237B600EE00C4A7B6813441B7820
:102200001846FFF7CFFE0346002B01D0012308E05C
:102210007B6801337B60064B1B687A689A42EBD37C
:10222000002318460837BD4680BD00BFC4510024B6
:10223000D478002480B582B000AF0023FB70002367
:102240007B602748FFF738FE03461A46254B1A7075
:102250002548FFF731FE03461A46244B1A702448DE
:10226000FFF72AFE03461A46204B5A70214B1B6883
:10227000093B5B08204A136000237B601E4B1B68F0
:10228000002B17D011E07B685B0007331B4A134417
:102290001846FFF711FE03461946194A7B68134496
:1022A0000A461A707B6801337B60134B1B687A689F
:1022B0009A42E8D3124A7B68134400221A700D4BED
:1022C0001B68023B0D4A13441846FFF7F5FD034611
:1022D0001A460C4B1A70FB7818460837BD4680BD6D
:1022E000C5510024087A0024C75100240C7A002428
:1022F000C9510024D478002420A10024C451002412
:10230000107A002424A1002480B582B000AF0023FD
:10231000FB710648FFF762FEFFF7A2FE0448FFF7D5
:1023200015FAFB7918460837BD4680BD24A1002464
:1023300028A1002480B584B000AF0346FB800023B1
:10234000FB73114B02221A60104B1A78104B1A7053
:102350000E4B5A780E4B5A70FB881B0A9BB2DAB2AE
:102360000A4B1A70FB88DAB2084B5A700948FFF71B
:1023700035FEFFF775FE0848FFF7E8F9FB7B1846C6
:102380001037BD4680BD00BF20A100240C7A002478
:10239000107A002424A1002428A1002480B584B050
:1023A00000AF0346FB8000237B73FB88A3F54073DB
:1023B000212B00F28B8101A252F823F04524000862
:1023C00093240008E1240008CD260008CD2600084B
:1023D000CD260008CD260008CD260008CD26000811
:1023E000CD260008CD260008CD260008CD26000801
:1023F000CD260008CD260008CD2600082F25000890
:102400009B250008CD260008CD260008CD26000813
:10241000CD260008CD260008CD260008CD260008D0
:10242000CD260008CD260008CD260008CD260008C0
:10243000CD260008CD260008CD260008FB25000883
:102440006B260008A94B1B68002B1DD10021A84852
:10245000FEF776FE03461A467B7B13447B737B7B39
:10246000002B0CD1A34BA44A92E80300186004335C
:1024700019709E4B04221A60FFF746FF30E14FF6B9
:102480000170FFF757FF2BE14FF20500FFF752FFF6
:1024900026E1964B1B68002B1DD101219448FEF7C5
:1024A0004FFE03461A467B7B13447B737B7B002BDA
:1024B0000CD1904B904A92E80300186004331970D5
:1024C0008A4B04221A60FFF71FFF09E14FF60170E3
:1024D000FFF730FF04E14FF20500FFF72BFFFFE0AD
:1024E000824B1B68002B1DD102218148FEF728FE7C
:1024F00003461A467B7B13447B737B7B002B0CD1FA
:102500007C4B7D4A92E80300186004331970774BC6
:1025100004221A60FFF7F8FEE2E04FF60170FFF7C1
:1025200009FFDDE04FF20500FFF704FFD8E06F4B35
:102530001B68032B2CD16F4B1B786E4A52781146C7
:102540001846FFF717FD0346FB816A4B9B783B73E8
:102550003A7BFB8919466648FEF74CFC03461A464F
:102560007B7B13447B737B7B002B0CD1614B624ADA
:1025700092E803001860043319705C4B04221A605F
:10258000FFF7C2FEACE04FF60170FFF7D3FEA7E005
:102590004FF20500FFF7CEFEA2E0544B1B68022B62
:1025A00026D1544B1B78534A527811461846FFF7F0
:1025B000E1FC0346FB8107F10C02FB8919464C48FC
:1025C000FEF7CCFC03461A467B7B13447B737B7B74
:1025D000002B08D1454B03221A603A7B454B9A7079
:1025E000FFF792FE7CE04FF60170FFF7A3FE77E065
:1025F0004FF20500FFF79EFE72E03C4B1B68B3F5FF
:10260000967F2DD10023FB8108E0FA89FB893949A7
:10261000895C3A4AD154FB890133FB81FB89B3F5CC
:10262000967FF2D335493248FEF7BAFC03461A4684
:102630007B7B13447B737B7B002B0CD12D4B2E4A71
:1026400092E80300186004331970284B04221A60C2
:10265000FFF75AFE44E04FF60170FFF76BFE3FE0D4
:102660004FF20500FFF766FE3AE0204B1B68002B97
:1026700027D122491E48FEF73FFD03461A467B7BC1
:1026800013447B737B7B002B16D1184B4FF496724F
:102690001A600023FB8108E0FA89FB891749895CED
:1026A000144AD154FB890133FB81FB89B3F5967F32
:1026B000F2D3FFF729FE13E04FF60170FFF73AFE61
:1026C0000EE04FF20500FFF735FE09E04FF204007F
:1026D000FFF730FE03461A467B7B13447B7300BF33
:1026E000002318461037BD4680BD00BF20A100243E
:1026F000E0010024107A002424750008DC7800240E
:1027000080B582B000AF0023FB71484B1B781BB231
:102710001B021AB2454B5B781BB213431BB2BB8042
:10272000BB884EF2FF02934250D0B3F5614F6EDA90
:102730004EF20202934236D04EF20202934266DC1F
:102740004EF20102934220D04EF2010293425EDC2F
:1027500040F2213293425ADCB3F5487F0BDA40F263
:102760000232934203DCB3F5407F04DA4FE0A3F575
:102770004473012B4BD8BB881846FFF70FFE034666
:102780001A46FB791344FB714BE0294B294A1A6026
:10279000294B03221A60FFF7B7FD03461A46FB795F
:1027A0001344FB713DE0224B244A12681146198004
:1027B0000233120C1A70204B02221A60FFF7A4FD9C
:1027C00003461A46FB791344FB712AE01C4B1B7825
:1027D000012B0AD1164B1B4A92E803001860043300
:1027E0001970154B04221A6009E0114B164A92E841
:1027F00003001860043319700F4B04221A60FFF7AE
:1028000083FD03461A46FB791344FB7109E04FF23E
:102810000400FFF78FFD03461A46FB791344FB7152
:1028200000BF002318460837BD4680BD0C7A00243F
:10283000107A00244C56530020A100242C75000867
:10284000DB780024307500083875000880B582B048
:1028500000AF0023FB71324B1B78DBB2002B5AD048
:10286000304B1B68022B02D8FB790133FB71FFF759
:1028700055FC03461A46FB791344FB71FB79002B88
:1028800042D1FFF795FC03461A46FB791344FB71CE
:10289000FB79002B04D04FF20100FFF74BFD34E031
:1028A000FFF7A4FC03461A46FB791344FB71FB793E
:1028B000002B04D04FF20200FFF73CFD25E0FFF7AC
:1028C000B9FC03461A46FB791344FB71FFF752FC2F
:1028D00003461A46FB791344FB71FB79002B04D0A5
:1028E0004FF20300FFF726FD0FE0FFF709FF034655
:1028F0001A46FB791344FB71FB79002B05D04FF688
:10290000FF70FFF717FD00E000BF054B00221A70B3
:10291000044B00221A60FB7918460837BD4680BD7B
:10292000D9780024D478002480B483B000AF034663
:10293000FB80FB88074AA2FB03231B099AB2064BC4
:102940001A80054B1B88DBB218460C37BD465DF874
:10295000047B70478988888838C8002480B483B095
:1029600000AF0346FB80FA880A4BA3FB0213190948
:102970000B461B015B1A5B00D31A9AB2064B1A80F6
:10298000054B1B88DBB218460C37BD465DF8047B4F
:10299000704700BF8988888838C8002480B582B015
:1029A00000AF0346FB80FB881846FFF7D7FF0346BE
:1029B0001A46074B1A80064B1B881B099AB2044B18
:1029C0001A80034B1B88DBB218460837BD4680BD12
:1029D00038C8002480B582B000AF0346FB80FB8876
:1029E0001846FFF7A1FF03461A46044B1A80034B13
:1029F0001B88DBB218460837BD4680BD38C80024A6
:102A000080B584B000AF0346FB80FB881846FFF713
:102A10008BFF0346FB81FB881846FFF79FFF0346A9
:102A20001A46144B1A80FB8903F001039BB2002B5A
:102A300012D1104B1B889B08BB810E4B1B8803F0E7
:102A400003037B81BB899B009AB27B89D31A9BB21B
:102A500003339AB2074B1A80064B1B8803F00F030F
:102A60009AB2044B1A80034B1B88DBB2184610370E
:102A7000BD4680BD38C8002480B485B000AF786002
:102A80000A4BD3F8E02009497B681343C1F8E030D2
:102A9000064BD3F8E0207B681340FB60FB6800BF67
:102AA0001437BD465DF8047B704700BF00440258F0
:102AB00080B485B000AF78600A4BD3F8E4200949B0
:102AC0007B681343C1F8E430064BD3F8E4207B68FD
:102AD0001340FB60FB6800BF1437BD465DF8047B04
:102AE000704700BF0044025880B485B000AF7860E2
:102AF0000A4BD3F8E82009497B681343C1F8E83052
:102B0000064BD3F8E8207B681340FB60FB6800BFEE
:102B10001437BD465DF8047B704700BF004402587F
:102B200080B485B000AF78600A4BD3F8F020094933
:102B30007B681343C1F8F030064BD3F8F0207B6874
:102B40001340FB60FB6800BF1437BD465DF8047B93
:102B5000704700BF0044025880B485B000AF786071
:102B60000A4BD3F8F42009497B681343C1F8F430C9
:102B7000064BD3F8F4207B681340FB60FB6800BF72
:102B80001437BD465DF8047B704700BF004402580F
:102B900080B483B000AF78607B681B6843F00102AB
:102BA0007B681A6000BF0C37BD465DF8047B704738
:102BB00080B483B000AF78607B68DB6823F00042AC
:102BC0007B68DA6000BF0C37BD465DF8047B704758
:102BD00080B483B000AF78607B681B6843F40072F8
:102BE0007B681A6000BF0C37BD465DF8047B7047F8
:102BF00080B483B000AF78607B681B6823F4807278
:102C00007B681A6000BF0C37BD465DF8047B7047D7
:102C100080B483B000AF786039607B68DB6823F4F0
:102C200060123B681A437B68DA6000BF0C37BD4610
:102C30005DF8047B704780B483B000AF7860396082
:102C40007B689B6823F4F0723B681A437B689A6048
:102C500000BF0C37BD465DF8047B704780B483B07D
:102C600000AF78607B68DB6823F080427B68DA60C5
:102C700000BF0C37BD465DF8047B704780B483B05D
:102C800000AF78607B685B6903F00103012B01D121
:102C9000012300E0002318460C37BD465DF8047B95
:102CA000704780B483B000AF78607B685B6903F0E5
:102CB0000203022B01D1012300E0002318460C3748
:102CC000BD465DF8047B704780B483B000AF786088
:102CD0007B6830331B78DBB218460C37BD465DF895
:102CE000047B704780B485B000AF78607B68303378
:102CF000FB60FB681B889BB218461437BD465DF825
:102D0000047B704780B483B000AF78607B681B6B36
:102D100018460C37BD465DF8047B704780B483B01D
:102D200000AF78600B46FB707B682033FA781A702E
:102D300000BF0C37BD465DF8047B704780B485B09A
:102D400000AF78600B467B807B682033FB60FB68BC
:102D50007A881A8000BF1437BD465DF8047B70473F
:102D600080B483B000AF786039607B683A681A62DB
:102D700000BF0C37BD465DF8047B704780B485B05A
:102D800000AF78607B68DAB2104B1344FB60FB68DD
:102D90001A687B68190E7B681B0A03F01F0301FA8F
:102DA00003F3DB431A407B681B0CD9B27B681B0A18
:102DB00003F01F0301FA03F31A43FB681A6000BF14
:102DC0001437BD465DF8047B704700BF4C44025881
:102DD00080B582B000AF78607868FFF7CFFF00BFA2
:102DE0000837BD4680BD000080B594B000AF786064
:102DF000002387F84F307B685B681846FFF73CFE7E
:102E00007B68DB687B630223BB630123FB630023D6
:102E10003B6400237B647B681B69BB647B689B68A5
:102E200007F134021146184602F096FB7B681B78C6
:102E3000012B25D17B685B691846FFF71DFE7B6877
:102E4000DB697B637B681B6ABB647B689B6907F1FA
:102E500034021146184602F07FFB7B685B6A184615
:102E6000FFF70AFE7B68DB6A7B637B681B6BBB64D6
:102E70007B689B6A07F134021146184602F06CFB2E
:102E80007B68DB6B1846FFF7A3FF7B6893F8343051
:102E9000032B23D801A252F823F000BFAD2E000867
:102EA000B92E0008C52E0008D12E00087B689B6B48
:102EB0001846FFF719FE13E07B689B6B1846FFF777
:102EC0002FFE0DE07B689B6B1846FFF7F1FD07E0D6
:102ED0007B689B6B1846FFF73FFE01E001234AE049
:102EE0007B685B6CFB604FF480033B617B689B6C91
:102EF0007B617B68DB6CBB617B681B6DFB614FF0AA
:102F000080633B627B685B6D7B627B689B6DBB62B1
:102F10000023FB6200233B637B681B6C07F10C0200
:102F20001146184603F04AFB7B681B6C1846FFF7F6
:102F30003FFE7B681B6C1846FFF75AFE7B681B6CD4
:102F400000211846FFF764FE7B681B6C00211846C1
:102F5000FFF771FE7B681B6C1846FFF77FFE7B68EE
:102F60001B6C1846FFF714FE7B681B6C1846FFF7B6
:102F70002FFE97F84F3018465037BD4680BD00BF32
:102F800080B584B000AFF860B9607A6000BFFB68BC
:102F90001B6C1846FFF785FE0346002BF7D0FB6835
:102FA0009B6C073B182B4FD801A252F823F000BFAF
:102FB0001530000849300008493000084930000841
:102FC00049300008493000084930000849300008FD
:102FD000273000084930000839300008493000081F
:102FE00049300008493000084930000849300008DD
:102FF00039300008493000084930000849300008DD
:1030000049300008493000084930000849300008BC
:1030100039300008FB681B6C7A68D2B2114618463A
:10302000FFF77CFE10E0FB681B6C7A6892B21146D9
:103030001846FFF783FE07E0FB681B6C79681846AB
:10304000FFF78EFE00BFFFE700BFFB681B6C184652
:10305000FFF714FE0346002BF7D0FB689B6C073B81
:10306000182B52D801A252F823F000BFD13000082B
:103070000B3100080B3100080B3100080B31000840
:103080000B3100080B3100080B310008E530000857
:103090000B310008F93000080B3100080B31000833
:1030A0000B3100080B3100080B310008F930000823
:1030B0000B3100080B3100080B3100080B31000800
:1030C0000B3100080B3100080B310008F930000803
:1030D000FB681B6C1846FFF7F7FD03461A46BB68F2
:1030E0001A6012E0FB681B6C1846FFF7FBFD0346F5
:1030F0001A46BB681A6008E0FB681B6C1846FFF7AD
:1031000001FE0246BB681A6000BF00231846103754
:10311000BD4680BD80B582B000AF0023FB710A4878
:10312000FEF7F9FB03461A46FB791344FB71074887
:10313000FEF7F1FB03461A46FB791344FB71FB795A
:1031400018460837BD4680BD000000241800002442
:1031500080B582B000AF0023FB710A48FEF7FFFB89
:1031600003461A46FB791344FB710748FEF7F7FB49
:1031700003461A46FB791344FB71FB79184608375E
:10318000BD4680BD000000241800002480B584B036
:1031900000AF0346FB710023FB73FB79012B08D1C1
:1031A0000A48FEF7EDFB03461A46FB7B1344FB730C
:1031B00007E00648FEF7D3FB03461A46FB7B1344A1
:1031C000FB73FB7B18461037BD4680BD0000002412
:1031D00080B584B000AF0346FB710023FB73FB791D
:1031E000012B08D10A48FEF7CBFB03461A46FB7BAE
:1031F0001344FB7307E00648FEF7B1FB03461A468B
:10320000FB7B1344FB73FB7B18461037BD4680BD28
:103210001800002480B485B000AF78600A4BD3F862
:10322000D82009497B681343C1F8D830064BD3F83E
:10323000D8207B681340FB60FB6800BF1437BD4695
:103240005DF8047B704700BF0044025880B485B02D
:1032500000AF78600A4BD3F8E02009497B6813433C
:10326000C1F8E030064BD3F8E0207B681340FB60E8
:10327000FB6800BF1437BD465DF8047B704700BF94
:103280000044025880B485B000AF78600A4BD3F890
:10329000E42009497B681343C1F8E430064BD3F8B6
:1032A000E4207B681340FB60FB6800BF1437BD4619
:1032B0005DF8047B704700BF0044025880B485B0BD
:1032C00000AF78600A4BD3F8E82009497B681343C4
:1032D000C1F8E830064BD3F8E8207B681340FB6068
:1032E000FB6800BF1437BD465DF8047B704700BF24
:1032F0000044025880B485B000AF78600A4BD3F820
:10330000F02009497B681343C1F8F030064BD3F82D
:10331000F0207B681340FB60FB6800BF1437BD469C
:103320005DF8047B704700BF0044025880B485B04C
:1033300000AF78600A4BD3F8F42009497B68134347
:10334000C1F8F430064BD3F8F4207B681340FB60DF
:10335000FB6800BF1437BD465DF8047B704700BFB3
:103360000044025880B485B000AF786039607B6853
:10337000FB600C4A3B6813441B781A46FB681344F5
:103380001B6808493A680A4412781146FA680A44E8
:1033900043F00103136000BF1437BD465DF8047BA2
:1033A000704700BF607D000880B485B000AF7860D2
:1033B00039607B68FB600A4A3B6813441B781A46F5
:1033C000FB6813441B6803F00103012B01D10123A7
:1033D00000E0002318461437BD465DF8047B7047B3
:1033E000607D000880B487B000AFF860B9607A6093
:1033F000FB687B610D4ABB6813441B781A467B69E6
:1034000013445A680A4B13400849BA680A441278B0
:1034100011467A690A4411467A6813434B6000BF2B
:103420001C37BD465DF8047B704700BF607D000817
:103430000000FFFF80B485B000AF786039607B6822
:10344000FB60074A3B6813441B781A46FB68134429
:103450005B689BB218461437BD465DF8047B704725
:10346000607D000880B487B000AFF860B9607A6012
:10347000FB687B61074ABB6813441B781A467B696B
:1034800013441A467B68D36000BF1C37BD465DF805
:10349000047B7047607D000880B483B000AF786023
:1034A0007B6820229A6000BF0C37BD465DF8047B24
:1034B000704780B483B000AF78607B681B6843F0CE
:1034C00001027B681A6000BF0C37BD465DF8047BC3
:1034D000704780B483B000AF78607B681B6823F0CE
:1034E00000527B681A6000BF0C37BD465DF8047B54
:1034F000704780B483B000AF78607B685B6823F46A
:1035000090427B685A607B689B6823F02A027B6844
:103510009A6000BF0C37BD465DF8047B704780B4ED
:1035200083B000AF78607B68DB6903F04003402B19
:1035300001D1012300E0002318460C37BD465DF899
:10354000047B704780B483B000AF78607B68DB6930
:1035500003F08003802B01D1012300E000231846F3
:103560000C37BD465DF8047B704780B483B000AF74
:1035700078607B6840221A6200BF0C37BD465DF858
:10358000047B704780B489B000AF78607B680833F3
:10359000FB60FB6853E8003FBB60BB6843F040033F
:1035A000FB617B680833FA69BA617B617969BA6942
:1035B00041E800233B613B69002BE7D100BF00BF1E
:1035C0002437BD465DF8047B704780B489B000AFF6
:1035D00078607B680833FB60FB6853E8003FBB60A2
:1035E000BB6843F08003FB617B680833FA69BA610A
:1035F0007B617969BA6941E800233B613B69002B33
:10360000E7D100BF00BF2437BD465DF8047B70479B
:1036100080B485B000AF786039603B68002B03D17F
:103620007B682833FB6002E07B682433FB60FB6827
:1036300018461437BD465DF8047B704780B483B0EC
:1036400000AF78600B46FB70FA787B689A6200BF27
:103650000C37BD465DF8047B7047000080B485B030
:1036600000AF78607B68DAB2104B1344FB60FB68F4
:103670001A687B68190E7B681B0A03F01F0301FAA6
:1036800003F3DB431A407B681B0CD9B27B681B0A2F
:1036900003F01F0301FA03F31A43FB681A6000BF2B
:1036A0001437BD465DF8047B704700BF4C44025898
:1036B00080B582B000AF78607868FFF7CFFF00BFB9
:1036C0000837BD4680BD000080B592B000AF78607D
:1036D000002387F847307B685B681846FFF7B6FD24
:1036E0007B68DB68FB6202233B6303237B6300236D
:1036F000BB630023FB637B681B693B647B689B683F
:1037000007F12C021146184601F026FF7B681B7852
:10371000012B12D17B685B691846FFF797FD7B6828
:10372000DB69FB627B681B6A3B647B689B6907F112
:103730002C021146184601F00FFF7B68DB6A184621
:10374000FFF7B6FF7B6893F82430032B22D801A241
:1037500052F823F065370008713700087D370008FC
:10376000893700087B689B6A1846FFF7A7FD17E0BA
:103770007B689B6A1846FFF7BDFD11E07B689B6A7A
:103780001846FFF77FFD0BE07B689B6A1846FFF742
:10379000CDFD05E097F84730013387F8473000BF8B
:1037A0007B681B6BFB607B689B6B3B6100237B61D1
:1037B0000023BB610023FB617B68DB6B3B627B68A2
:1037C0001B6C7B620023BB627B685B6B07F10C02A6
:1037D0001146184603F00EF87B685B6B1846FFF73E
:1037E00078FE7B685B6B1846FFF783FE7B685B6B3C
:1037F0001846FFF75EFE97F8473018464837BD4633
:1038000080BD00BF80B594B000AF78607B681B6856
:103810001846FFF7FFFC07F10C034422002118466D
:1038200003F0ECF97B689B683B637B681B697B61F9
:103830007B685B69BB617B685A6A7B689B6A1946D7
:103840001046FFF7E5FE0346FB60174B3B61002384
:10385000FB614FF480633B6200237B620023BB6209
:103860004FF40043FB627B689B697B630023BB636F
:103870007B6858687B68DB6807F10C02194601F029
:1038800031FD7B685B6A1846FFF77CFE7B685A68EF
:103890007B68DB6819461046FFF764FD0023184675
:1038A0005037BD4680BD00BF0000003080B594B0E9
:1038B00000AF78607B681B681846FFF7ABFC07F128
:1038C0000C0344220021184603F098F97B689B689A
:1038D0003B637B681B697B617B685B69BB617B6861
:1038E0005A6A7B689B6A19461046FFF791FE0346A9
:1038F000FB6000233B610023FB614FF480633B626C
:1039000000237B620023BB620023FB627B689B6910
:103910007B630023BB637B6858687B68DB6807F1C7
:103920000C02194601F0DEFC7B685B6A1846FFF763
:103930004CFE002318465037BD4680BD80B582B08E
:1039400000AF78600B46FB7000BF7B685B6B18466E
:10395000FFF7F8FD0346002BF7D07B685B6BFA7826
:1039600011461846FFF76AFE00BF7B685B6B18467E
:10397000FFF7D5FD0346002BF7D000231846083784
:10398000BD4680BD80B584B000AF7860396000234B
:10399000FB600AE03A68FB6813441B7819467868B4
:1039A000FFF7CCFFFB680133FB603A68FB68134408
:1039B0001B78002BEED10D217868FFF7BFFF0A219D
:1039C0007868FFF7BBFF00BF7B685B6B1846FFF7AB
:1039D000A6FD0346002BF7D0002318461037BD463E
:1039E00080BD000080B584B000AF786039600023EE
:1039F000FB737B685A687B68DB6819461046FFF7E3
:103A000019FD03469AB2144B9B1ABB81BB89C3F3C1
:103A10000E03BB81114B1B889BB2BA899A4203D11A
:103A2000FB7B0133FB7311E00C4B1B889BB21A46E6
:103A30000B4B9A5C3B681A70084B1B889BB2013396
:103A40009BB2C3F30E039AB2044B1A80FB7B184659
:103A50001037BD4680BD00BF0080FFFF3AC800247C
:103A60000000003080B584B000AF78600023FB73A5
:103A70007B685A687B68DB6819461046FFF794FC40
:103A80000346002B02D10123FB7301E00023FB73EB
:103A9000FB7B18461037BD4680BD80B586B000AFB1
:103AA000F860B9607A600023FB75FB685A68FB68B0
:103AB000DB6819461046FFF777FC0346002B02D05F
:103AC000FB7D0133FB75FB7D002B2ED100BFFB6816
:103AD0005B6A1846FFF723FD0346002BF7D0FB680F
:103AE0005868FB68DB68BA681946FFF7BBFCFB68DF
:103AF0005868FB68DB687A681946FFF773FCFB6857
:103B0000DB68002B04D1FB685B681846FFF7C4FC38
:103B1000FB685B6A1846FFF728FDFB685A68FB687C
:103B2000DB6819461046FFF71DFCFB7D1846183769
:103B3000BD4680BD80B582B000AF0023FB712D482B
:103B4000FDF742FE03461A46FB791344FB712A48EF
:103B5000FDF73AFE03461A46FB791344FB712748EA
:103B6000FDF732FE03461A46FB791344FB712448E5
:103B7000FDF73CF80346002B08D12248FDF724FE50
:103B800003461A46FB791344FB710AE01E48FDF711
:103B90001BFE03461A46FB791344FB71FB79013384
:103BA000FB71FB79002B08D11848FDF70DFE034689
:103BB0001A46FB791344FB7107E01548FDF704FE34
:103BC00003461A46FB791344FB711248FDF7BEFD0C
:103BD00003461A46FB791344FB7100F01DF80346B7
:103BE0001A46FB791344FB71FB7918460837BD462A
:103BF00080BD00BF4075000844750008E4750008EA
:103C0000E0010024FC7500081876000834760008EE
:103C100084760008C476000880B400AF054B00220B
:103C20001A80054B01221A7000231846BD465DF824
:103C3000047B70473CC80024CC02002480B584B0CB
:103C400000AFA74B1B88A3F59673162B00F2FC81DF
:103C500001A252F823F000BFB53C0008C93C00089F
:103C6000DD3C000849400008494000084940000880
:103C70004940000849400008494000084940000800
:103C8000F13C0008E13D00084940000849400008B7
:103C900049400008494000084940000849400008E0
:103CA0004940000849400008713E00085F3F000895
:103CB000D13F000800218B48FDF742FA8A48FDF702
:103CC00045FDFFF7A9FFC5E101218648FDF738FA58
:103CD0008648FDF73BFDFFF79FFFBBE102218148CE
:103CE000FDF72EFA8248FDF731FDFFF795FFB1E1B0
:103CF000804B1B78032B33D0032B6ADC012B02D0C3
:103D0000022B0AD065E07C48FDF720FD794B1B783B
:103D10000133DAB2774B1A7061E0784802F08DFE19
:103D200003469AB2764B1A80754B1B88B3F5967F83
:103D300010D2734B1B881A467249734802F03CFF3D
:103D40007148FDF703FD6B4B1B780133DAB2694B09
:103D50001A7044E06D48FDF7F9FCFFF75DFF3EE0A7
:103D6000664802F06AFE0346DAB2694B1A70684B85
:103D70001B78022B27D8624B1B88654A127819469C
:103D80005848FDF737F80346002B18D1604B1B78D5
:103D9000002B07D15A4B1B881A465E495A4802F03D
:103DA0000BFF08E0564B1B881A46594B1B785A49A3
:103DB000554802F001FF5448FDF7C8FC06E057489B
:103DC000FDF7C4FC02E05648FDF7C0FCFFF724FFF6
:103DD00005E05448FDF7BAFCFFF71EFF00BF39E1CC
:103DE000444B1B78012B02D0022B0AD039E0424809
:103DF000FDF7ACFC3F4B1B780133DAB23D4B1A7038
:103E000035E03E4802F019FE03469AB23C4B1A8058
:103E10003B4B1B883E4A19463248FDF79FF8034644
:103E2000002B18D13A4B1B78002B07D1344B1B8841
:103E30001A463849344802F0BFFE08E0304B1B8870
:103E40001A46334B1B7834492F4802F0B5FE2E48F2
:103E5000FDF77CFC02E03448FDF778FCFFF7DCFE60
:103E600005E03248FDF772FCFFF7D6FE00BFF1E037
:103E7000204B1B78012B02D0022B0AD068E02C4883
:103E8000FDF764FC1B4B1B780133DAB2194B1A7037
:103E900064E0284B1B68B3F5967F53D100237B6009
:103EA0000AE07B68154AD25C7B68303AD1B2224A7C
:103EB000D1547B6801337B607B68B3F5967FF0D388
:103EC0001D490848FDF76CF80346002B03D11B4839
:103ED000FDF73CFC39E01A48FDF738FC35E000BF3F
:103EE0003CC80024E00100243C7700085477000817
:103EF00074770008CC02002494770008C451002491
:103F00003EC80024B077000870C90024E477000898
:103F100040C80024F47700080878000828780008D2
:103F20006C78000880780008B0780008F478000801
:103F300024790008D478002444C800246879000853
:103F4000887900084648FDF701FCFFF765FE05E0AB
:103F50004448FDF7FBFBFFF75FFE00BF7AE04248F5
:103F6000FDF7F4FB41494248FDF7C6F800237B60AA
:103F700028E00023BB600023FB601AE0BB683D4AD9
:103F80009818BB68C3F5FA717A6813461B019B1A2F
:103F90005B001A46FB681344344AD35C364A02F08D
:103FA000D5FD03461A46BB681344BB60FB6801336A
:103FB000FB60FB681D2BE1D92E48FDF7C7FB7B6832
:103FC00001337B607B68092BD3D9FFF725FE41E0E5
:103FD0002A4B1B78012B02D0022B0AD02DE0284857
:103FE000FDF7B4FB254B1B780133DAB2234B1A7073
:103FF00029E0244802F021FD0346DAB21B4B1A7077
:104000001A4B1B783A1D19461948FDF747F9034624
:10401000002B08D1154B1B781A467B681A491548A6
:1040200002F0CAFD03E01949124802F0C5FD11482B
:10403000FDF78CFBFFF7F0FD05E01548FDF786FB6B
:10404000FFF7EAFD00BF05E01248FDF77FFBFFF731
:10405000E3FD00BF002318461037BD4680BD00BFFA
:10406000C8790008047A0008307A000844C800249F
:10407000E001002470C90024687A0008CC02002402
:104080006C7A0008C4510024A07A0008C47A0008A1
:10409000187B0008507B000880B500AF684B1B8878
:1040A000002B40F0888067496748FCF731F90346E8
:1040B000002B04D1624B4EF6FF721A807BE06349FD
:1040C0006148FCF725F90346002B04D15C4B4EF206
:1040D00001021A806FE05E495B48FCF719F903465C
:1040E000002B04D1564B4EF2FF021A8063E059496F
:1040F0005548FCF70DF90346002B04D1504B4FF403
:1041000096721A8057E054494F48FCF701F903466C
:10411000002B04D14A4B40F22D121A804BE04F493C
:104120004948FCF7F5F80346002B04D1444B4FF403
:1041300097721A803FE04A494348FCF7E9F8034682
:10414000002B04D13E4B4FF49B721A8033E045495B
:104150003D48FCF7DDF80346002B04D1384B40F214
:1041600037121A8027E040493748FCF7D1F8034658
:10417000002B04D1324B4FF4A0721A801BE03B4954
:104180003148FCF7C5F80346002B04D12C4B40F214
:1041900041121A800FE036492B48FCF7B9F8034664
:1041A000002B04D1264B4FF4A1721A8003E0244B5C
:1041B0004FF6FF721A80224B1B884EF6FF72934215
:1041C00026D0B3F5704F32DA4EF2FF0293422BD075
:1041D000B3F5614F2BDAB3F5A17F11DCB3F5967F10
:1041E00025DBA3F59673234A22FA03F303F00103B8
:1041F000002B14BF01230023DBB2002B05D116E0F6
:104200004EF20102934209D011E0FFF717FD14E0CE
:104210001948FDF79BFAFFF7FFFC0EE01748FDF782
:1042200095FAFFF7F9FC08E0FFF784FC05E0144875
:10423000FDF78CFAFFF7F0FC00BF0023184680BDA5
:104240003CC80024707B0008C4510024747B000823
:10425000787B0008807B0008847B0008887B00084E
:104260008C7B0008907B0008947B0008987B0008FA
:104270009C7B0008070C7000A07B0008247D0008D0
:10428000487D000880B582B000AF0023FB71094B68
:104290001B78DBB2002B07D0FFF7FEFE054B002298
:1042A0001A70054B00221A60FB7918460837BD4684
:1042B00080BD00BFD8780024D478002480B485B0B5
:1042C00000AF78607B6803F00703FB600B4BDB6893
:1042D000BB60BA684FF6FF031340BB60FB681A026D
:1042E000BB681A43064B1343BB60044ABB68D360E8
:1042F00000BF1437BD465DF8047B704700ED00E059
:104300000000FA0580B400AF044BDB681B0A03F021
:1043100007031846BD465DF8047B704700ED00E0DA
:1043200080B483B000AF03463960FB80B7F9063034
:10433000002B0ADB3B68DAB20C49B7F906301201F0
:10434000D2B20B4483F800230AE03B68DAB2084992
:10435000FB8803F00F03043B1201D2B20B441A7620
:1043600000BF0C37BD465DF8047B704700E100E0FC
:1043700000ED00E080B489B000AFF860B9607A6009
:10438000FB6803F00703FB61FB69C3F10703042B20
:1043900028BF0423BB61FB690433062B02D9FB69E8
:1043A000033B00E000237B614FF0FF32BB6902FA60
:1043B00003F3DA43BB681A407B699A404FF0FF3140
:1043C0007B6901FA03F3D9437B680B40134318461A
:1043D0002437BD465DF8047B7047000080B400AF11
:1043E000054B1B68044A43F48033136000BFBD468D
:1043F0005DF8047B704700BF0044025880B400AFF2
:10440000074B1B6803F40033B3F5003F01D10123D0
:1044100000E000231846BD465DF8047B704700BFEE
:104420000044025880B483B000AF7860064B1B692B
:1044300023F0070204497B6813430B6100BF0C376C
:10444000BD465DF8047B70470044025880B400AF5D
:10445000044B1B6903F038031846BD465DF8047B26
:10446000704700BF0044025880B483B000AF78604A
:10447000064B9B6923F4706204497B6813438B618C
:1044800000BF0C37BD465DF8047B704700440258FE
:1044900080B483B000AF7860064B9B6923F00F02B5
:1044A00004497B6813438B6100BF0C37BD465DF840
:1044B000047B70470044025880B483B000AF78603A
:1044C000064BDB6923F0700204497B681343CB6120
:1044D00000BF0C37BD465DF8047B704700440258AE
:1044E00080B483B000AF7860064BDB6923F4E062F0
:1044F00004497B681343CB6100BF0C37BD465DF8B0
:10450000047B70470044025880B483B000AF7860E9
:10451000064B9B6923F0700204497B6813438B614F
:1045200000BF0C37BD465DF8047B7047004402585D
:1045300080B483B000AF7860064B1B6A23F0700232
:1045400004497B6813430B6200BF0C37BD465DF81E
:10455000047B70470044025880B483B000AF786099
:10456000064B9B6A23F0030204497B6813438B626A
:1045700000BF0C37BD465DF8047B7047004402580D
:1045800080B400AF054B1B68044A43F0807313608E
:1045900000BFBD465DF8047B704700BF0044025871
:1045A00080B400AF054B1B68044A23F0807313608E
:1045B00000BFBD465DF8047B704700BF0044025851
:1045C00080B400AF074B1B6803F00073B3F1007FAA
:1045D00001D1012300E000231846BD465DF8047BAD
:1045E000704700BF0044025880B400AF054BDB6A3F
:1045F000044A43F48033D36200BFBD465DF8047BB8
:10460000704700BF0044025880B400AF074BDB6A1C
:1046100003F48033B3F5803F01D1012300E0002390
:104620001846BD465DF8047B704700BF0044025841
:1046300080B483B000AF7860074BDB6A23F00202DE
:104640007B685B0004491343CB6200BF0C37BD4657
:104650005DF8047B704700BF0044025880B483B00B
:1046600000AF7860074BDB6A23F00C027B689B008D
:1046700004491343CB6200BF0C37BD465DF8047B91
:10468000704700BF0044025880B483B000AF786028
:10469000074B1A6B074B13407A68013A04491343DE
:1046A0000B6300BF0C37BD465DF8047B704700BF4D
:1046B0000044025800FEFFFF80B483B000AF786072
:1046C000074B9B6A23F47C727B681B0104491343EC
:1046D0008B6200BF0C37BD465DF8047B704700BF9E
:1046E0000044025880B483B000AF7860074B1B6B66
:1046F00023F47E427B68013B5B02044913430B6356
:1047000000BF0C37BD465DF8047B7047004402587B
:1047100080B483B000AF7860074B1B6B23F4FE02BC
:104720007B68013B1B04044913430B6300BF0C3738
:10473000BD465DF8047B70470044025880B483B0E6
:1047400000AF7860074B1B6B23F0FE427B68013B98
:104750001B06044913430B6300BF0C37BD465DF8CD
:10476000047B70470044025880B400AF054B1B68BF
:10477000044A43F08053136000BFBD465DF8047BDC
:10478000704700BF0044025880B400AF054B1B685F
:10479000044A23F08053136000BFBD465DF8047BDC
:1047A000704700BF0044025880B400AF074B1B683D
:1047B00003F00053B3F1005F01D1012300E00023B7
:1047C0001846BD465DF8047B704700BF00440258A0
:1047D00080B400AF054BDB6A044A43F48003D36224
:1047E00000BFBD465DF8047B704700BF004402581F
:1047F00080B400AF054BDB6A044A43F40003D36284
:1048000000BFBD465DF8047B704700BF00440258FE
:1048100080B400AF054BDB6A044A43F08073D36277
:1048200000BFBD465DF8047B704700BF00440258DE
:1048300080B400AF074BDB6A03F48003B3F5800F4D
:1048400001D1012300E000231846BD465DF8047B3A
:10485000704700BF0044025880B400AF074BDB6ACA
:1048600003F40003B3F5000F01D1012300E000239E
:104870001846BD465DF8047B704700BF00440258EF
:1048800080B400AF074BDB6A03F08073B3F1807F25
:1048900001D1012300E000231846BD465DF8047BEA
:1048A000704700BF0044025880B483B000AF786006
:1048B000074BDB6A23F400727B685B0204491343F5
:1048C000CB6200BF0C37BD465DF8047B704700BF6C
:1048D0000044025880B483B000AF7860074BDB6AB5
:1048E00023F440627B689B0204491343CB6200BF00
:1048F0000C37BD465DF8047B704700BF004402588A
:1049000080B483B000AF7860074B1A6C074B13403C
:104910007A68013A044913430B6400BF0C37BD4663
:104920005DF8047B704700BF0044025800FEFFFFA3
:1049300080B483B000AF7860074B9B6A23F07C7231
:104940007B681B05044913438B6200BF0C37BD46CF
:104950005DF8047B704700BF0044025880B483B008
:1049600000AF7860074B1B6C23F47E427B68013BF1
:104970005B02044913430B6400BF0C37BD465DF86E
:10498000047B70470044025880B483B000AF786065
:10499000074B1B6C23F4FE027B68013B1B0404499C
:1049A00013430B6400BF0C37BD465DF8047B7047B2
:1049B0000044025880B483B000AF7860074B1B6C92
:1049C00023F0FE427B68013B1B06044913430B6442
:1049D00000BF0C37BD465DF8047B704700440258A9
:1049E00080B485B000AF78600A4BD3F8E020094965
:1049F0007B681343C1F8E030064BD3F8E0207B68B6
:104A00001340FB60FB6800BF1437BD465DF8047BB4
:104A1000704700BF0044025880B485B000AF786092
:104A20000A4BD3F8F42009497B681343C1F8F430EA
:104A3000064BD3F8F4207B681340FB60FB6800BF93
:104A40001437BD465DF8047B704700BF0044025830
:104A500080B483B000AF7860064B1B6823F00F0270
:104A600004497B6813430B6000BF0C37BD465DF8FB
:104A7000047B70470020005280B400AF044B1B68D9
:104A800003F00F031846BD465DF8047B704700BF76
:104A90000020005280B483B000AF7860084A7B6881
:104AA00043F001035360BFF34F8F00BFBFF36F8F1D
:104AB00000BF00BF0C37BD465DF8047B704700BFE8
:104AC00090ED00E080B400AFBFF35F8F00BF044BF8
:104AD00000225A6000BFBD465DF8047B704700BFEE
:104AE00090ED00E080B485B000AFF860B9607A6006
:104AF0003B600B4AFB689360094A7B6823F01F0305
:104B0000D360BB681A023B681343054A43F00103B4
:104B1000136100BF1437BD465DF8047B704700BFCA
:104B200090ED00E080B483B000AF7860064BDB68A6
:104B300023F03F0204497B681343CB6000BF0C376E
:104B4000BD465DF8047B70470048025880B483B0CE
:104B500000AF7860064B9B6923F4404204497B68B0
:104B600013438B6100BF0C37BD465DF8047B704773
:104B70000048025880B400AF074B9B6903F4005310
:104B8000B3F5005F01D1012300E000231846BD46C4
:104B90005DF8047B704700BF0048025880B582B0C2
:104BA00000AF0023FB7100F036F800F065F800F06C
:104BB000DDF800F0E2F800F023F903461A46FB792D
:104BC0001344FB7100BFFB79002BFCD100F064F9AA
:104BD00003461A46FB791344FB71FB79002B0BD17A
:104BE00000F030F903461A46FB791344FB7100BF0D
:104BF000FB79002BFCD106E000F024F903461A46AD
:104C0000FB791344FB71FCF717FEFFF73BFBFDF745
:104C10001DFE00BFF7E780B500AF00F095F8022059
:104C2000FFF7FAFE0320FFF749FBFFF76BFB034694
:104C300000220F211846FFF79DFB034619464FF04F
:104C4000FF30FFF76DFB0320FFF702FF00BFFFF708
:104C500013FF0346032BFAD12620FFF763FF002042
:104C6000FFF774FF00BFFFF785FF0346002BFAD064
:104C700000BF00BF80BD000080B500AF8020FFF7FF
:104C8000AFFEFFF7ABFB00BFFFF7B8FB0346012BFE
:104C9000FAD1FFF785FC00BFFFF792FC0346002B1B
:104CA000FAD1FFF7A1FC0220FFF756FC0120FFF725
:104CB000D5FC0020FFF7BCFC0820FFF7FDFC4FF4FB
:104CC0008070FFF7E1FC0120FFF70CFD0220FFF7E9
:104CD0001FFD0220FFF732FDFFF752FC00BFFFF778
:104CE0006FFC0346012BFAD100BFFFF78DFC034692
:104CF000012BFAD10820FFF7CBFB0320FFF792FB33
:104D000000BFFFF7A3FB0346182BFAD10020FFF7E3
:104D1000ABFB0820FFF7BCFB4020FFF7CDFB4FF4B7
:104D20008060FFF7DDFB4020FFF7EEFB4020FFF740
:104D3000FFFB044801F03AFE024801F045FE00BFC7
:104D400080BD00BF0080841E80B500AFFFF7BAFEB3
:104D5000054B002287210020FFF7C4FE0420FFF747
:104D600099FE00BF80BD00BF3E00041080B400AFBC
:104D700000BFBD465DF8047B704780B500AFFFF70C
:104D800003FD00BFFFF710FD0346002BFAD1FFF72C
:104D90001FFDFFF72DFDFFF73BFD0120FFF79AFDFB
:104DA0000020FFF781FD0820FFF7C2FD8020FFF7FC
:104DB000A7FD0220FFF7D2FD0220FFF7E5FD02204C
:104DC000FFF7F8FDFFF7D0FC00BFFFF7EDFC03464F
:104DD000012BFAD100BFFFF72BFD0346012BFAD1BF
:104DE00000BFFFF739FD0346012BFAD100BFFFF7E3
:104DF00047FD0346012BFAD100BF00BF80BD000074
:104E000080B582B000AF0023FB71FEF783F9034643
:104E10001A46FB791344FB71FCF712FC03461A4651
:104E2000FB791344FB710648FBF7ACFD03461A46B9
:104E3000FB791344FB71FB7918460837BD4680BDEA
:104E4000E001002480B582B000AF0023FB71FEF7C3
:104E50007FF903461A46FB791344FB71FCF756FCB5
:104E600003461A46FB791344FB710A48FBF722FEFE
:104E700003461A46FB791344FB71FEF7CDFE034649
:104E80001A46FB791344FB71FB7918460837BD4677
:104E900080BD00BFE001002480B582B000AF0023D8
:104EA000FB710B48FBF7A2FE03461A46FB7913443D
:104EB000FB71FB79002B03D1064B01221A7002E033
:104EC000044B00221A70FB7918460837BD4680BD96
:104ED000E0010024DB78002480B400AF00BFFDE7D0
:104EE00080B400AF00BFFDE780B400AF00BFFDE7B6
:104EF00080B400AF00BFFDE780B400AF00BFFDE7A6
:104F000080B400AF00BFBD465DF8047B704780B43D
:104F100000AF00BFBD465DF8047B704780B400AFB2
:104F200000BFBD465DF8047B704780B400AF00BF92
:104F3000BD465DF8047B704780B586B000AF7860F1
:104F4000144A154BD31A7B617B693B61134B1B6879
:104F5000002B02D1114B124A1A60104B1A687B6861
:104F600013443A699A4207D201F050FE03460C22DC
:104F70001A604FF0FF3309E0084B1B68FB60074BDA
:104F80001A687B681344054A1360FB681846183793
:104F9000BD4680BD000005240008000064CB00244D
:104FA000B0CC002480B400AF324BD3F88830314A03
:104FB00043F47003C2F888302F4B1B6803F00F03D3
:104FC000062B07D82C4B1B6823F00F032A4A43F00B
:104FD00007031360294B1B68284A43F00103136041
:104FE000264B00221A61254B1A682449244B134092
:104FF0000B60214B1B6803F00803002B07D01E4BEE
:105000001B6823F00F031C4A43F0070313601B4B7C
:1050100000229A61194B0022DA61184B00221A62B1
:10502000164B184A9A62154B174ADA62134B174A05
:105030001A63124B00225A63104B144A9A630F4BA7
:105040000022DA630D4B114A1A640C4B00225A6499
:105050000A4B1B68094A23F480231360074B002284
:105060001A660B4B43F2D2021A6000BFBD465DF8D0
:10507000047B704700ED00E000200052004402581D
:105080007FEDF6EA000202020000FF01800201014A
:105090000040005280B487B000AFF860B9607A6019
:1050A000FB687B610D4ABB6813441B781A467B6919
:1050B00013441A680A4B13400849BA680A44127824
:1050C00011467A690A4411467A6813430B6000BF9F
:1050D0001C37BD465DF8047B704700BF687D000843
:1050E0001F80F0FF80B487B000AFF860B9607A60CD
:1050F000FB687B610D4ABB6813441B781A467B69C9
:1051000013445A680A4B13400849BA680A44127893
:1051100011467A690A4411467A6813434B6000BF0E
:105120001C37BD465DF8047B704700BF687D0008F2
:105130000000FFFF80B485B000AFF860B9607A600E
:10514000BA68124B13449B00FA6811498A4201D194
:10515000002200E0202213441B6823F0FF02B968FC
:105160000A4B0B449B00F9680948814201D1002198
:1051700000E020210B4419467B6813430B6000BFFD
:105180001437BD465DF8047B704700BF00820010F5
:105190000000024080B487B000AFF860B9607A6068
:1051A000FB687B610D4ABB6813441B781A467B6918
:1051B00013441B6823F0C0720849BB680B441B787A
:1051C00019467B690B4419467B6813430B6000BF8B
:1051D0001C37BD465DF8047B704700BF687D000842
:1051E00080B487B000AFF860B9607A60FB687B611B
:1051F0000D4ABB6813441B781A467B6913441B682D
:1052000023F4C0020849BB680B441B7819467B692C
:105210000B4419467B6813430B6000BF1C37BD4627
:105220005DF8047B704700BF687D000880B487B0DC
:1052300000AFF860B9607A603B60FB687B610E4A42
:10524000BB6813441B781A467B6913445B6923F0DF
:10525000070279683B680B430748B968014409783D
:1052600008467969014413434B6100BF1C37BD46B2
:105270005DF8047B704700BF687D000880B487B08C
:1052800000AFF860B9607A60FB687B61074ABB6871
:1052900013441B781A467B6913441A467B68D36013
:1052A00000BF1C37BD465DF8047B7047687D000871
:1052B00080B487B000AFF860B9607A60FB687B614A
:1052C000074ABB6813441B781A467B6913441A4685
:1052D0007B68936000BF1C37BD465DF8047B704758
:1052E000687D000880B584B000AFF860B9607A606E
:1052F0007B689A687B68DB681A437B681B691A4382
:105300007B685B691A437B689B691A437B68DB692E
:105310001A437B689B6A1A437B68DB6B1A437B6882
:105320001B6C13431A46B968F868FFF7B3FE7B6835
:10533000DB6A002B15D07B68DA6A7B681B6BB96867
:10534000F868FFF773FF7B685B6B1A46B968F8680B
:10535000FFF720FF7B689B6B1A46B968F868FFF778
:105360003FFF7B685B681A46B968F868FFF786FFFD
:105370007B681B681A46B968F868FFF799FF7B6875
:105380001B6A1A46B968F868FFF7ACFE7B685B6A6F
:105390001A46B968F868FFF7CDFE002318461037A3
:1053A000BD4680BD80B485B000AFF860B9607A605A
:1053B000FB681968BB6803FB03F213465B001344E8
:1053C000DB4301EA0302BB6803FB03F3796801FBDB
:1053D00003F31A43FB681A6000BF1437BD465DF83B
:1053E000047B704780B485B000AFF860B9607A6024
:1053F000FB685A68BB68DB431A40BB68796801FBED
:1054000003F31A43FB685A6000BF1437BD465DF8CA
:10541000047B704780B485B000AFF860B9607A60F3
:10542000FB689968BB6803FB03F213465B001344F7
:10543000DB4301EA0302BB6803FB03F3796801FB6A
:1054400003F31A43FB689A6000BF1437BD465DF84A
:10545000047B704780B485B000AFF860B9607A60B3
:10546000FB68D968BB6803FB03F213465B00134477
:10547000DB4301EA0302BB6803FB03F3796801FB2A
:1054800003F31A43FB68DA6000BF1437BD465DF8CA
:10549000047B704780B485B000AFF860B9607A6073
:1054A000FB68196ABB6803FB03F3BA6802FB03F3EA
:1054B000BA6803FB02F213461B019B1ADB4301EAA5
:1054C0000302BB6803FB03F3B96801FB03F3B9688C
:1054D00001FB03F3796801FB03F31A43FB681A62CB
:1054E00000BF1437BD465DF8047B704780B485B0BB
:1054F00000AFF860B9607A60FB68596ABB681B0A44
:10550000BA68120A02FB03F3BA68120A02FB03F339
:10551000BA68120A03FB02F213461B019B1ADB4313
:1055200001EA0302BB681B0AB968090A01FB03F31D
:10553000B968090A01FB03F3B968090A01FB03F31F
:10554000796801FB03F31A43FB685A6200BF143702
:10555000BD465DF8047B704780B588B000AF7860C9
:1055600039603B681B683B613B6993FAA3F3FB60BE
:10557000FB687B617B69002B01D1202303E07B6901
:10558000B3FA83F3DBB2FB6148E03B681A680121A0
:10559000FB6901FA03F31340BB61BB69002B3AD0EE
:1055A0003B685B68012B03D03B685B68022B0ED124
:1055B0003B689B681A46B9697868FFF72BFF3B6820
:1055C00019683B68DB681A467868FFF70BFF3B6891
:1055D0001B691A46B9697868FFF73CFF3B685B684E
:1055E000022B11D1BB69FF2B07D83B685B691A46B8
:1055F000B9697868FFF74EFF06E03B685B691A46B9
:10560000B9697868FFF772FF3B685B681A46B96949
:105610007868FFF7C7FEFB690133FB613B681A68D6
:10562000FB6922FA03F3002BAFD100231846203781
:10563000BD4680BD80B483B000AF78607B681B68D6
:1056400043F001027B681A6000BF0C37BD465DF86D
:10565000047B704780B483B000AF78607B681B68C0
:1056600023F001027B681A6000BF0C37BD465DF86D
:10567000047B704780B485B000AFF860B9607A6091
:10568000FB681B6823F4F8527B681902BB680B4364
:105690001A43FB681A6000BF1437BD465DF8047BEF
:1056A0007047000080B485B000AFF860B9607A60E0
:1056B000FB689A68064B1340B9687A680A431A4334
:1056C000FB689A6000BF1437BD465DF8047B7047E5
:1056D00000F8FFFF80B483B000AF78607B689B6800
:1056E00043F400427B689A6000BF0C37BD465DF80A
:1056F000047B704780B483B000AF78607B689B68A0
:1057000023F400427B689A6000BF0C37BD465DF809
:10571000047B704780B483B000AF786039607B68E9
:105720003A681A6100BF0C37BD465DF8047B7047CC
:1057300080B483B000AF786039607B681B6823F465
:1057400040123B681A437B681A6000BF0C37BD46A5
:105750005DF8047B704780B483B000AF7860396037
:105760007B685B6823F400423B681A437B685A609D
:1057700000BF0C37BD465DF8047B704780B582B032
:1057800000AF786039607868FFF764FF3B6899681C
:105790003B68DB681A467868FFF76CFF3B685B681C
:1057A00019467868FFF7B6FF7868FFF743FF786817
:1057B000FFF7A0FF3B6819693B689B691A46786848
:1057C000FFF770FF3B681B69002B02D07868FFF77A
:1057D00081FF3B681B6819467868FFF7A9FF3B68A3
:1057E0005B6919467868FFF7B6FF0023184608374B
:1057F000BD4680BD80B400AF074B1B6803F4003387
:10580000B3F5003F01D1012300E000231846BD4657
:105810005DF8047B704700BF0044025880B400AFBD
:10582000064B1B6803F00403042B01D1012300E0A5
:1058300000231846BD465DF8047B704700440258BB
:1058400080B400AF044B1B6803F018031846BD4634
:105850005DF8047B704700BF0044025880B400AF7D
:10586000074B1B6803F48073B3F5807F01D10123DC
:1058700000E000231846BD465DF8047B704700BF7A
:105880000044025880B400AF064B1B6F03F00203C4
:10589000022B01D1012300E000231846BD465DF82C
:1058A000047B70470044025880B400AF044B1B696E
:1058B00003F038031846BD465DF8047B704700BF0F
:1058C0000044025880B400AF044B9B6903F470633A
:1058D0001846BD465DF8047B704700BF004402587F
:1058E00080B400AF044B9B6903F00F031846BD461C
:1058F0005DF8047B704700BF0044025880B400AFDD
:10590000044BDB6903F070031846BD465DF8047B69
:10591000704700BF0044025880B400AF044BDB69FD
:1059200003F4E0631846BD465DF8047B704700BF92
:105930000044025880B485B000AF78607B68DAB26A
:105940000E4B1344FB60FB681A687B68190E7B687A
:105950001B0A03F01F0301FA03F31A407B681B0ABA
:1059600003F01F0322FA03F31A047B68134318465B
:105970001437BD465DF8047B704700BF4C440258A5
:1059800080B582B000AF78607868FFF7D3FF034638
:1059900018460837BD4680BD80B400AF044B9B6AF3
:1059A00003F003031846BD465DF8047B704700BF53
:1059B0000044025880B400AF074BDB6A03F4803325
:1059C000B3F5803F01D1012300E000231846BD4616
:1059D0005DF8047B704700BF0044025880B400AFFC
:1059E000074BDB6A03F40033B3F5003F01D1012319
:1059F00000E000231846BD465DF8047B704700BFF9
:105A00000044025880B400AF074BDB6A03F48023E4
:105A1000B3F5802F01D1012300E000231846BD46D5
:105A20005DF8047B704700BF0044025880B400AFAB
:105A3000064BDB6A03F00103012B01D1012300E0D7
:105A400000231846BD465DF8047B704700440258A9
:105A500080B400AF044B1B6BC3F30803013318463B
:105A6000BD465DF8047B70470044025880B400AF27
:105A7000044B9B6A1B0903F03F031846BD465DF8C3
:105A8000047B70470044025880B400AF054B1B6B89
:105A90005B0A03F07F0301331846BD465DF8047BC3
:105AA000704700BF0044025880B400AF054B1B6B29
:105AB0001B0C03F07F0301331846BD465DF8047BE1
:105AC000704700BF0044025880B400AF054B1B6B09
:105AD0001B0E03F07F0301331846BD465DF8047BBF
